{
  "contractName": "NFTMarket",
  "abi": [
    {
      "inputs": [],
      "stateMutability": "nonpayable",
      "type": "constructor"
    },
    {
      "anonymous": false,
      "inputs": [
        {
          "indexed": false,
          "internalType": "address",
          "name": "tokenAddress",
          "type": "address"
        },
        {
          "indexed": false,
          "internalType": "uint256",
          "name": "tokenId",
          "type": "uint256"
        },
        {
          "indexed": false,
          "internalType": "address",
          "name": "seller",
          "type": "address"
        },
        {
          "indexed": false,
          "internalType": "uint256",
          "name": "minBid",
          "type": "uint256"
        },
        {
          "indexed": false,
          "internalType": "uint256",
          "name": "deadline",
          "type": "uint256"
        }
      ],
      "name": "AuctionCreated",
      "type": "event"
    },
    {
      "anonymous": false,
      "inputs": [
        {
          "indexed": true,
          "internalType": "uint256",
          "name": "itemId",
          "type": "uint256"
        },
        {
          "indexed": true,
          "internalType": "address",
          "name": "nftContract",
          "type": "address"
        },
        {
          "indexed": true,
          "internalType": "uint256",
          "name": "tokenId",
          "type": "uint256"
        },
        {
          "indexed": false,
          "internalType": "address",
          "name": "seller",
          "type": "address"
        },
        {
          "indexed": false,
          "internalType": "address",
          "name": "owner",
          "type": "address"
        },
        {
          "indexed": false,
          "internalType": "uint256",
          "name": "price",
          "type": "uint256"
        }
      ],
      "name": "MarketItemCreated",
      "type": "event"
    },
    {
      "inputs": [
        {
          "internalType": "address",
          "name": "",
          "type": "address"
        },
        {
          "internalType": "uint256",
          "name": "",
          "type": "uint256"
        }
      ],
      "name": "auctions",
      "outputs": [
        {
          "internalType": "address",
          "name": "seller",
          "type": "address"
        },
        {
          "internalType": "uint256",
          "name": "minBid",
          "type": "uint256"
        },
        {
          "internalType": "uint256",
          "name": "deadline",
          "type": "uint256"
        },
        {
          "internalType": "address",
          "name": "highestBidAddress",
          "type": "address"
        },
        {
          "internalType": "uint256",
          "name": "highestBidAmount",
          "type": "uint256"
        }
      ],
      "stateMutability": "view",
      "type": "function",
      "constant": true
    },
    {
      "inputs": [],
      "name": "currency",
      "outputs": [
        {
          "internalType": "contract IERC20",
          "name": "",
          "type": "address"
        }
      ],
      "stateMutability": "view",
      "type": "function",
      "constant": true
    },
    {
      "inputs": [
        {
          "internalType": "uint256",
          "name": "",
          "type": "uint256"
        }
      ],
      "name": "owners",
      "outputs": [
        {
          "internalType": "address",
          "name": "wallet",
          "type": "address"
        },
        {
          "internalType": "uint8",
          "name": "feePercentage",
          "type": "uint8"
        }
      ],
      "stateMutability": "view",
      "type": "function",
      "constant": true
    },
    {
      "inputs": [
        {
          "internalType": "uint256",
          "name": "tokenId",
          "type": "uint256"
        }
      ],
      "name": "getSell",
      "outputs": [
        {
          "components": [
            {
              "internalType": "uint256",
              "name": "itemId",
              "type": "uint256"
            },
            {
              "internalType": "address",
              "name": "nftContract",
              "type": "address"
            },
            {
              "internalType": "uint256",
              "name": "tokenId",
              "type": "uint256"
            },
            {
              "internalType": "address",
              "name": "seller",
              "type": "address"
            },
            {
              "internalType": "address",
              "name": "owner",
              "type": "address"
            },
            {
              "internalType": "uint256",
              "name": "price",
              "type": "uint256"
            }
          ],
          "internalType": "struct NFTMarket.MarketItem",
          "name": "",
          "type": "tuple"
        }
      ],
      "stateMutability": "view",
      "type": "function",
      "constant": true
    },
    {
      "inputs": [
        {
          "internalType": "address",
          "name": "nftContract",
          "type": "address"
        },
        {
          "internalType": "uint256",
          "name": "tokenId",
          "type": "uint256"
        },
        {
          "internalType": "uint256",
          "name": "price",
          "type": "uint256"
        }
      ],
      "name": "createMarketItem",
      "outputs": [],
      "stateMutability": "nonpayable",
      "type": "function"
    },
    {
      "inputs": [
        {
          "internalType": "address",
          "name": "_nftContract",
          "type": "address"
        },
        {
          "internalType": "uint256",
          "name": "_itemId",
          "type": "uint256"
        }
      ],
      "name": "buyNft",
      "outputs": [],
      "stateMutability": "nonpayable",
      "type": "function"
    },
    {
      "inputs": [],
      "name": "fetchMarketItems",
      "outputs": [
        {
          "components": [
            {
              "internalType": "uint256",
              "name": "itemId",
              "type": "uint256"
            },
            {
              "internalType": "address",
              "name": "nftContract",
              "type": "address"
            },
            {
              "internalType": "uint256",
              "name": "tokenId",
              "type": "uint256"
            },
            {
              "internalType": "address",
              "name": "seller",
              "type": "address"
            },
            {
              "internalType": "address",
              "name": "owner",
              "type": "address"
            },
            {
              "internalType": "uint256",
              "name": "price",
              "type": "uint256"
            }
          ],
          "internalType": "struct NFTMarket.MarketItem[]",
          "name": "",
          "type": "tuple[]"
        }
      ],
      "stateMutability": "view",
      "type": "function",
      "constant": true
    },
    {
      "inputs": [],
      "name": "fetchMyNFTs",
      "outputs": [
        {
          "components": [
            {
              "internalType": "uint256",
              "name": "itemId",
              "type": "uint256"
            },
            {
              "internalType": "address",
              "name": "nftContract",
              "type": "address"
            },
            {
              "internalType": "uint256",
              "name": "tokenId",
              "type": "uint256"
            },
            {
              "internalType": "address",
              "name": "seller",
              "type": "address"
            },
            {
              "internalType": "address",
              "name": "owner",
              "type": "address"
            },
            {
              "internalType": "uint256",
              "name": "price",
              "type": "uint256"
            }
          ],
          "internalType": "struct NFTMarket.MarketItem[]",
          "name": "",
          "type": "tuple[]"
        }
      ],
      "stateMutability": "view",
      "type": "function",
      "constant": true
    },
    {
      "inputs": [
        {
          "internalType": "address",
          "name": "_nftContract",
          "type": "address"
        },
        {
          "internalType": "uint256",
          "name": "_tokenId",
          "type": "uint256"
        },
        {
          "internalType": "uint256",
          "name": "_minBid",
          "type": "uint256"
        },
        {
          "internalType": "uint256",
          "name": "_deadline",
          "type": "uint256"
        }
      ],
      "name": "createAuction",
      "outputs": [],
      "stateMutability": "nonpayable",
      "type": "function"
    },
    {
      "inputs": [
        {
          "internalType": "address",
          "name": "_nftContract",
          "type": "address"
        },
        {
          "internalType": "uint256",
          "name": "_tokenId",
          "type": "uint256"
        },
        {
          "internalType": "uint256",
          "name": "_amount",
          "type": "uint256"
        }
      ],
      "name": "createBid",
      "outputs": [],
      "stateMutability": "nonpayable",
      "type": "function"
    },
    {
      "inputs": [
        {
          "internalType": "address",
          "name": "_nftContract",
          "type": "address"
        },
        {
          "internalType": "uint256",
          "name": "_tokenId",
          "type": "uint256"
        }
      ],
      "name": "closeAuction",
      "outputs": [],
      "stateMutability": "nonpayable",
      "type": "function"
    }
  ],
  "bytecode": "0x608060405234801561001057600080fd5b50600160008190555060066040518060400160405280735cc9b109c6db71a04fdfbfdf9e0e9949282d9ca573ffffffffffffffffffffffffffffffffffffffff168152602001600a60ff168152509080600181540180825580915050600190039060005260206000200160009091909190915060008201518160000160006101000a81548173ffffffffffffffffffffffffffffffffffffffff021916908373ffffffffffffffffffffffffffffffffffffffff16021790555060208201518160000160146101000a81548160ff021916908360ff16021790555050506006604051806040016040528073e369e09bf7671d4e6950788e2b80e79b4d961de773ffffffffffffffffffffffffffffffffffffffff168152602001600a60ff168152509080600181540180825580915050600190039060005260206000200160009091909190915060008201518160000160006101000a81548173ffffffffffffffffffffffffffffffffffffffff021916908373ffffffffffffffffffffffffffffffffffffffff16021790555060208201518160000160146101000a81548160ff021916908360ff16021790555050506006604051806040016040528073fa0d377502c7e360ca83f7aa33bbecf598a075fd73ffffffffffffffffffffffffffffffffffffffff168152602001600a60ff168152509080600181540180825580915050600190039060005260206000200160009091909190915060008201518160000160006101000a81548173ffffffffffffffffffffffffffffffffffffffff021916908373ffffffffffffffffffffffffffffffffffffffff16021790555060208201518160000160146101000a81548160ff021916908360ff16021790555050506129b1806102a46000396000f3fe608060405234801561001057600080fd5b50600436106100a95760003560e01c80634ddf4f8f116100715780634ddf4f8f1461016b57806358eb2df51461018757806361beb1d7146101a3578063dde4a70b146101bf578063e5a6b10f146101ef578063fba133d91461020d576100a9565b8063025e7c27146100ae5780630f08efe0146100df578063202e3740146100fd578063438364a11461011b57806344f91c1e14610137575b600080fd5b6100c860048036038101906100c39190612080565b610229565b6040516100d6929190612590565b60405180910390f35b6100e7610286565b6040516100f491906125b9565b60405180910390f35b610105610597565b60405161011291906125b9565b60405180910390f35b61013560048036038101906101309190611f69565b61092c565b005b610151600480360381019061014c9190611f69565b610da6565b60405161016295949392919061253d565b60405180910390f35b61018560048036038101906101809190611f69565b610e29565b005b6101a1600480360381019061019c9190611fa5565b611237565b005b6101bd60048036038101906101b89190611ff4565b61152b565b005b6101d960048036038101906101d49190612080565b61171e565b6040516101e691906126f6565b60405180910390f35b6101f761186b565b60405161020491906125db565b60405180910390f35b61022760048036038101906102229190611fa5565b611891565b005b6006818154811061023957600080fd5b906000526020600020016000915090508060000160009054906101000a900473ffffffffffffffffffffffffffffffffffffffff16908060000160149054906101000a900460ff16905082565b606060006102946001611c97565b905060006102a26002611c97565b6102ac6001611c97565b6102b691906127e2565b90506000808267ffffffffffffffff8111156102fb577f4e487b7100000000000000000000000000000000000000000000000000000000600052604160045260246000fd5b60405190808252806020026020018201604052801561033457816020015b610321611e9d565b8152602001906001900390816103195790505b50905060005b8481101561058c57600073ffffffffffffffffffffffffffffffffffffffff166004600060018461036b919061275b565b815260200190815260200160002060040160009054906101000a900473ffffffffffffffffffffffffffffffffffffffff1673ffffffffffffffffffffffffffffffffffffffff161415610579576000600460006001846103cc919061275b565b81526020019081526020016000206000015490506000600460008381526020019081526020016000209050806040518060c0016040529081600082015481526020016001820160009054906101000a900473ffffffffffffffffffffffffffffffffffffffff1673ffffffffffffffffffffffffffffffffffffffff1673ffffffffffffffffffffffffffffffffffffffff168152602001600282015481526020016003820160009054906101000a900473ffffffffffffffffffffffffffffffffffffffff1673ffffffffffffffffffffffffffffffffffffffff1673ffffffffffffffffffffffffffffffffffffffff1681526020016004820160009054906101000a900473ffffffffffffffffffffffffffffffffffffffff1673ffffffffffffffffffffffffffffffffffffffff1673ffffffffffffffffffffffffffffffffffffffff16815260200160058201548152505084868151811061055c577f4e487b7100000000000000000000000000000000000000000000000000000000600052603260045260246000fd5b6020026020010181905250600185610574919061275b565b945050505b80806105849061288f565b91505061033a565b508094505050505090565b606060006105a56001611c97565b905060008060005b8381101561064e573373ffffffffffffffffffffffffffffffffffffffff16600460006001846105dd919061275b565b815260200190815260200160002060040160009054906101000a900473ffffffffffffffffffffffffffffffffffffffff1673ffffffffffffffffffffffffffffffffffffffff16141561063b57600183610638919061275b565b92505b80806106469061288f565b9150506105ad565b5060008267ffffffffffffffff811115610691577f4e487b7100000000000000000000000000000000000000000000000000000000600052604160045260246000fd5b6040519080825280602002602001820160405280156106ca57816020015b6106b7611e9d565b8152602001906001900390816106af5790505b50905060005b84811015610921573373ffffffffffffffffffffffffffffffffffffffff1660046000600184610700919061275b565b815260200190815260200160002060040160009054906101000a900473ffffffffffffffffffffffffffffffffffffffff1673ffffffffffffffffffffffffffffffffffffffff16141561090e57600060046000600184610761919061275b565b81526020019081526020016000206000015490506000600460008381526020019081526020016000209050806040518060c0016040529081600082015481526020016001820160009054906101000a900473ffffffffffffffffffffffffffffffffffffffff1673ffffffffffffffffffffffffffffffffffffffff1673ffffffffffffffffffffffffffffffffffffffff168152602001600282015481526020016003820160009054906101000a900473ffffffffffffffffffffffffffffffffffffffff1673ffffffffffffffffffffffffffffffffffffffff1673ffffffffffffffffffffffffffffffffffffffff1681526020016004820160009054906101000a900473ffffffffffffffffffffffffffffffffffffffff1673ffffffffffffffffffffffffffffffffffffffff1673ffffffffffffffffffffffffffffffffffffffff1681526020016005820154815250508486815181106108f1577f4e487b7100000000000000000000000000000000000000000000000000000000600052603260045260246000fd5b6020026020010181905250600185610909919061275b565b945050505b80806109199061288f565b9150506106d0565b508094505050505090565b6000600360008473ffffffffffffffffffffffffffffffffffffffff1673ffffffffffffffffffffffffffffffffffffffff168152602001908152602001600020600083815260200190815260200160002090506000816002015414156109c8576040517f08c379a00000000000000000000000000000000000000000000000000000000081526004016109bf906126d6565b60405180910390fd5b42816002015410610a0e576040517f08c379a0000000000000000000000000000000000000000000000000000000008152600401610a0590612616565b60405180910390fd5b600081600401541415610b6c578273ffffffffffffffffffffffffffffffffffffffff166323b872dd308360000160009054906101000a900473ffffffffffffffffffffffffffffffffffffffff16856040518463ffffffff1660e01b8152600401610a7c939291906124b3565b600060405180830381600087803b158015610a9657600080fd5b505af1158015610aaa573d6000803e3d6000fd5b50505050600360008473ffffffffffffffffffffffffffffffffffffffff1673ffffffffffffffffffffffffffffffffffffffff1681526020019081526020016000206000838152602001908152602001600020600080820160006101000a81549073ffffffffffffffffffffffffffffffffffffffff0219169055600182016000905560028201600090556003820160006101000a81549073ffffffffffffffffffffffffffffffffffffffff021916905560048201600090555050610da1565b6000610b7b8260040154611ca5565b9050600560009054906101000a900473ffffffffffffffffffffffffffffffffffffffff1673ffffffffffffffffffffffffffffffffffffffff166323b872dd308460000160009054906101000a900473ffffffffffffffffffffffffffffffffffffffff16846040518463ffffffff1660e01b8152600401610c00939291906124b3565b602060405180830381600087803b158015610c1a57600080fd5b505af1158015610c2e573d6000803e3d6000fd5b505050506040513d601f19601f82011682018060405250810190610c529190612057565b508373ffffffffffffffffffffffffffffffffffffffff166323b872dd308460030160009054906101000a900473ffffffffffffffffffffffffffffffffffffffff16866040518463ffffffff1660e01b8152600401610cb4939291906124b3565b600060405180830381600087803b158015610cce57600080fd5b505af1158015610ce2573d6000803e3d6000fd5b50505050600360008573ffffffffffffffffffffffffffffffffffffffff1673ffffffffffffffffffffffffffffffffffffffff1681526020019081526020016000206000848152602001908152602001600020600080820160006101000a81549073ffffffffffffffffffffffffffffffffffffffff0219169055600182016000905560028201600090556003820160006101000a81549073ffffffffffffffffffffffffffffffffffffffff021916905560048201600090555050505b505050565b6003602052816000526040600020602052806000526040600020600091509150508060000160009054906101000a900473ffffffffffffffffffffffffffffffffffffffff16908060010154908060020154908060030160009054906101000a900473ffffffffffffffffffffffffffffffffffffffff16908060040154905085565b60026000541415610e6f576040517f08c379a0000000000000000000000000000000000000000000000000000000008152600401610e6690612676565b60405180910390fd5b600260008190555033600460008381526020019081526020016000206002015480600560009054906101000a900473ffffffffffffffffffffffffffffffffffffffff1673ffffffffffffffffffffffffffffffffffffffff166370a08231846040518263ffffffff1660e01b8152600401610eeb9190612498565b60206040518083038186803b158015610f0357600080fd5b505afa158015610f17573d6000803e3d6000fd5b505050506040513d601f19601f82011682018060405250810190610f3b91906120a9565b11610f7b576040517f08c379a0000000000000000000000000000000000000000000000000000000008152600401610f7290612636565b60405180910390fd5b6000600460008581526020019081526020016000206005015490506000600460008681526020019081526020016000206002015490506000610fbc83611ca5565b9050600560009054906101000a900473ffffffffffffffffffffffffffffffffffffffff1673ffffffffffffffffffffffffffffffffffffffff166323b872dd33600460008a815260200190815260200160002060030160009054906101000a900473ffffffffffffffffffffffffffffffffffffffff16846040518463ffffffff1660e01b8152600401611053939291906124b3565b602060405180830381600087803b15801561106d57600080fd5b505af1158015611081573d6000803e3d6000fd5b505050506040513d601f19601f820116820180604052508101906110a59190612057565b508673ffffffffffffffffffffffffffffffffffffffff166323b872dd3033856040518463ffffffff1660e01b81526004016110e3939291906124b3565b600060405180830381600087803b1580156110fd57600080fd5b505af1158015611111573d6000803e3d6000fd5b50505050600560009054906101000a900473ffffffffffffffffffffffffffffffffffffffff1673ffffffffffffffffffffffffffffffffffffffff166323b872dd3033856040518463ffffffff1660e01b8152600401611174939291906124b3565b602060405180830381600087803b15801561118e57600080fd5b505af11580156111a2573d6000803e3d6000fd5b505050506040513d601f19601f820116820180604052508101906111c69190612057565b50336004600088815260200190815260200160002060040160006101000a81548173ffffffffffffffffffffffffffffffffffffffff021916908373ffffffffffffffffffffffffffffffffffffffff1602179055506112266002611e87565b505050505060016000819055505050565b6002600054141561127d576040517f08c379a000000000000000000000000000000000000000000000000000000000815260040161127490612676565b60405180910390fd5b6002600081905550600081116112c8576040517f08c379a00000000000000000000000000000000000000000000000000000000081526004016112bf90612696565b60405180910390fd5b6112d26001611e87565b60006112de6001611c97565b90506040518060c001604052808281526020018573ffffffffffffffffffffffffffffffffffffffff1681526020018481526020013373ffffffffffffffffffffffffffffffffffffffff168152602001600073ffffffffffffffffffffffffffffffffffffffff16815260200183815250600460008381526020019081526020016000206000820151816000015560208201518160010160006101000a81548173ffffffffffffffffffffffffffffffffffffffff021916908373ffffffffffffffffffffffffffffffffffffffff1602179055506040820151816002015560608201518160030160006101000a81548173ffffffffffffffffffffffffffffffffffffffff021916908373ffffffffffffffffffffffffffffffffffffffff16021790555060808201518160040160006101000a81548173ffffffffffffffffffffffffffffffffffffffff021916908373ffffffffffffffffffffffffffffffffffffffff16021790555060a082015181600501559050508373ffffffffffffffffffffffffffffffffffffffff166323b872dd3330866040518463ffffffff1660e01b8152600401611496939291906124b3565b600060405180830381600087803b1580156114b057600080fd5b505af11580156114c4573d6000803e3d6000fd5b50505050828473ffffffffffffffffffffffffffffffffffffffff16827f2ad024d53a0dc50c130967f8d4941927ee087ea31394cebb2b9599d3706c9c0033600087604051611515939291906124b3565b60405180910390a4506001600081905550505050565b6000600360008673ffffffffffffffffffffffffffffffffffffffff1673ffffffffffffffffffffffffffffffffffffffff1681526020019081526020016000206000858152602001908152602001600020905060008160020154146115c6576040517f08c379a00000000000000000000000000000000000000000000000000000000081526004016115bd906126b6565b60405180910390fd5b8473ffffffffffffffffffffffffffffffffffffffff166323b872dd3330876040518463ffffffff1660e01b8152600401611603939291906124b3565b600060405180830381600087803b15801561161d57600080fd5b505af1158015611631573d6000803e3d6000fd5b50505050338160000160006101000a81548173ffffffffffffffffffffffffffffffffffffffff021916908373ffffffffffffffffffffffffffffffffffffffff16021790555082816001018190555081816002018190555060008160030160006101000a81548173ffffffffffffffffffffffffffffffffffffffff021916908373ffffffffffffffffffffffffffffffffffffffff160217905550600081600401819055507feeb8a66f59ee07b48e9116047f8bd98f651e4c76f74f3daf44ce1d592130bccc858533868660405161170f9594939291906124ea565b60405180910390a15050505050565b611726611e9d565b600460008381526020019081526020016000206040518060c0016040529081600082015481526020016001820160009054906101000a900473ffffffffffffffffffffffffffffffffffffffff1673ffffffffffffffffffffffffffffffffffffffff1673ffffffffffffffffffffffffffffffffffffffff168152602001600282015481526020016003820160009054906101000a900473ffffffffffffffffffffffffffffffffffffffff1673ffffffffffffffffffffffffffffffffffffffff1673ffffffffffffffffffffffffffffffffffffffff1681526020016004820160009054906101000a900473ffffffffffffffffffffffffffffffffffffffff1673ffffffffffffffffffffffffffffffffffffffff1673ffffffffffffffffffffffffffffffffffffffff1681526020016005820154815250509050919050565b600560009054906101000a900473ffffffffffffffffffffffffffffffffffffffff1681565b338180600560009054906101000a900473ffffffffffffffffffffffffffffffffffffffff1673ffffffffffffffffffffffffffffffffffffffff166370a08231846040518263ffffffff1660e01b81526004016118ef9190612498565b60206040518083038186803b15801561190757600080fd5b505afa15801561191b573d6000803e3d6000fd5b505050506040513d601f19601f8201168201806040525081019061193f91906120a9565b1161197f576040517f08c379a000000000000000000000000000000000000000000000000000000000815260040161197690612636565b60405180910390fd5b6000600360008773ffffffffffffffffffffffffffffffffffffffff1673ffffffffffffffffffffffffffffffffffffffff16815260200190815260200160002060008681526020019081526020016000209050600081600201541415611a1b576040517f08c379a0000000000000000000000000000000000000000000000000000000008152600401611a12906126d6565b60405180910390fd5b4281600201541015611a62576040517f08c379a0000000000000000000000000000000000000000000000000000000008152600401611a59906125f6565b60405180910390fd5b838160040154108015611a785750838160010154105b611ab7576040517f08c379a0000000000000000000000000000000000000000000000000000000008152600401611aae90612656565b60405180910390fd5b600560009054906101000a900473ffffffffffffffffffffffffffffffffffffffff1673ffffffffffffffffffffffffffffffffffffffff166323b872dd3330876040518463ffffffff1660e01b8152600401611b16939291906124b3565b602060405180830381600087803b158015611b3057600080fd5b505af1158015611b44573d6000803e3d6000fd5b505050506040513d601f19601f82011682018060405250810190611b689190612057565b50600560009054906101000a900473ffffffffffffffffffffffffffffffffffffffff1673ffffffffffffffffffffffffffffffffffffffff166323b872dd308360030160009054906101000a900473ffffffffffffffffffffffffffffffffffffffff1684600401546040518463ffffffff1660e01b8152600401611bf0939291906124b3565b602060405180830381600087803b158015611c0a57600080fd5b505af1158015611c1e573d6000803e3d6000fd5b505050506040513d601f19601f82011682018060405250810190611c429190612057565b50338160030160006101000a81548173ffffffffffffffffffffffffffffffffffffffff021916908373ffffffffffffffffffffffffffffffffffffffff160217905550838160040181905550505050505050565b600081600001549050919050565b6000806000905060005b600680549050811015611e7257600060068281548110611cf8577f4e487b7100000000000000000000000000000000000000000000000000000000600052603260045260246000fd5b906000526020600020016040518060400160405290816000820160009054906101000a900473ffffffffffffffffffffffffffffffffffffffff1673ffffffffffffffffffffffffffffffffffffffff1673ffffffffffffffffffffffffffffffffffffffff1681526020016000820160149054906101000a900460ff1660ff1660ff168152505090506000816020015160ff1686611d9791906127b1565b90508084611da5919061275b565b9350600560009054906101000a900473ffffffffffffffffffffffffffffffffffffffff1673ffffffffffffffffffffffffffffffffffffffff166323b872dd338460000151846040518463ffffffff1660e01b8152600401611e0a939291906124b3565b602060405180830381600087803b158015611e2457600080fd5b505af1158015611e38573d6000803e3d6000fd5b505050506040513d601f19601f82011682018060405250810190611e5c9190612057565b5050508080611e6a9061288f565b915050611caf565b508083611e7f91906127e2565b915050919050565b6001816000016000828254019250508190555050565b6040518060c0016040528060008152602001600073ffffffffffffffffffffffffffffffffffffffff16815260200160008152602001600073ffffffffffffffffffffffffffffffffffffffff168152602001600073ffffffffffffffffffffffffffffffffffffffff168152602001600081525090565b600081359050611f2481612936565b92915050565b600081519050611f398161294d565b92915050565b600081359050611f4e81612964565b92915050565b600081519050611f6381612964565b92915050565b60008060408385031215611f7c57600080fd5b6000611f8a85828601611f15565b9250506020611f9b85828601611f3f565b9150509250929050565b600080600060608486031215611fba57600080fd5b6000611fc886828701611f15565b9350506020611fd986828701611f3f565b9250506040611fea86828701611f3f565b9150509250925092565b6000806000806080858703121561200a57600080fd5b600061201887828801611f15565b945050602061202987828801611f3f565b935050604061203a87828801611f3f565b925050606061204b87828801611f3f565b91505092959194509250565b60006020828403121561206957600080fd5b600061207784828501611f2a565b91505092915050565b60006020828403121561209257600080fd5b60006120a084828501611f3f565b91505092915050565b6000602082840312156120bb57600080fd5b60006120c984828501611f54565b91505092915050565b60006120de8383612375565b60c08301905092915050565b6120f381612816565b82525050565b61210281612816565b82525050565b600061211382612721565b61211d8185612739565b935061212883612711565b8060005b8381101561215957815161214088826120d2565b975061214b8361272c565b92505060018101905061212c565b5085935050505092915050565b61216f8161286b565b82525050565b600061218260138361274a565b91507f61756374696f6e2069732066696e6973686564000000000000000000000000006000830152602082019050919050565b60006121c260178361274a565b91507f61756374696f6e206973206e6f742066696e69736865640000000000000000006000830152602082019050919050565b600061220260138361274a565b91507f696e73756666696369656e7420666f756e6473000000000000000000000000006000830152602082019050919050565b600061224260158361274a565b91507f62696420616d6f756e7420697320746f6f206c6f7700000000000000000000006000830152602082019050919050565b6000612282601f8361274a565b91507f5265656e7472616e637947756172643a207265656e7472616e742063616c6c006000830152602082019050919050565b60006122c2601c8361274a565b91507f5072696365206d757374206265206174206c65617374203120776569000000006000830152602082019050919050565b600061230260158361274a565b91507f61756374696f6e20616c726561647920657869737400000000000000000000006000830152602082019050919050565b600061234260168361274a565b91507f61756374696f6e20646f6573206e6f74206578697374000000000000000000006000830152602082019050919050565b60c08201600082015161238b600085018261246b565b50602082015161239e60208501826120ea565b5060408201516123b1604085018261246b565b5060608201516123c460608501826120ea565b5060808201516123d760808501826120ea565b5060a08201516123ea60a085018261246b565b50505050565b60c082016000820151612406600085018261246b565b50602082015161241960208501826120ea565b50604082015161242c604085018261246b565b50606082015161243f60608501826120ea565b50608082015161245260808501826120ea565b5060a082015161246560a085018261246b565b50505050565b61247481612854565b82525050565b61248381612854565b82525050565b6124928161285e565b82525050565b60006020820190506124ad60008301846120f9565b92915050565b60006060820190506124c860008301866120f9565b6124d560208301856120f9565b6124e2604083018461247a565b949350505050565b600060a0820190506124ff60008301886120f9565b61250c602083018761247a565b61251960408301866120f9565b612526606083018561247a565b612533608083018461247a565b9695505050505050565b600060a08201905061255260008301886120f9565b61255f602083018761247a565b61256c604083018661247a565b61257960608301856120f9565b612586608083018461247a565b9695505050505050565b60006040820190506125a560008301856120f9565b6125b26020830184612489565b9392505050565b600060208201905081810360008301526125d38184612108565b905092915050565b60006020820190506125f06000830184612166565b92915050565b6000602082019050818103600083015261260f81612175565b9050919050565b6000602082019050818103600083015261262f816121b5565b9050919050565b6000602082019050818103600083015261264f816121f5565b9050919050565b6000602082019050818103600083015261266f81612235565b9050919050565b6000602082019050818103600083015261268f81612275565b9050919050565b600060208201905081810360008301526126af816122b5565b9050919050565b600060208201905081810360008301526126cf816122f5565b9050919050565b600060208201905081810360008301526126ef81612335565b9050919050565b600060c08201905061270b60008301846123f0565b92915050565b6000819050602082019050919050565b600081519050919050565b6000602082019050919050565b600082825260208201905092915050565b600082825260208201905092915050565b600061276682612854565b915061277183612854565b9250827fffffffffffffffffffffffffffffffffffffffffffffffffffffffffffffffff038211156127a6576127a56128d8565b5b828201905092915050565b60006127bc82612854565b91506127c783612854565b9250826127d7576127d6612907565b5b828204905092915050565b60006127ed82612854565b91506127f883612854565b92508282101561280b5761280a6128d8565b5b828203905092915050565b600061282182612834565b9050919050565b60008115159050919050565b600073ffffffffffffffffffffffffffffffffffffffff82169050919050565b6000819050919050565b600060ff82169050919050565b60006128768261287d565b9050919050565b600061288882612834565b9050919050565b600061289a82612854565b91507fffffffffffffffffffffffffffffffffffffffffffffffffffffffffffffffff8214156128cd576128cc6128d8565b5b600182019050919050565b7f4e487b7100000000000000000000000000000000000000000000000000000000600052601160045260246000fd5b7f4e487b7100000000000000000000000000000000000000000000000000000000600052601260045260246000fd5b61293f81612816565b811461294a57600080fd5b50565b61295681612828565b811461296157600080fd5b50565b61296d81612854565b811461297857600080fd5b5056fea264697066735822122039d1cbf8669bc82085270c463139fc914d57035f4d6fe8e32641eccac9707e1b64736f6c63430008000033",
  "immutableReferences": {},
  "source": "// SPDX-License-Identifier: MIT OR Apache-2.0\npragma solidity ^0.8.0;\n\nimport \"@openzeppelin/contracts/utils/Counters.sol\";\nimport \"@openzeppelin/contracts/security/ReentrancyGuard.sol\";\nimport \"@openzeppelin/contracts/token/ERC721/ERC721.sol\";\nimport '@openzeppelin/contracts/token/ERC20/IERC20.sol';\n\ncontract NFTMarket is ReentrancyGuard {\n  using Counters for Counters.Counter;\n  Counters.Counter private _itemIds;\n  Counters.Counter private _itemsSold;\n\n  constructor() {\n    owners.push(Owner(0x5Cc9B109c6Db71A04fDfbfDF9E0E9949282D9cA5, 10));\n    owners.push(Owner(0xE369e09Bf7671d4e6950788E2b80E79B4d961DE7, 10));\n    owners.push(Owner(0xfa0d377502C7e360Ca83F7aa33bBECf598A075fd, 10));\n  }\n\n  struct MarketItem {\n    uint itemId;\n    address nftContract;\n    uint256 tokenId;\n    address seller;\n    address owner;\n    uint256 price;\n  }\n\n  struct Owner {\n    address wallet;\n    uint8 feePercentage;\n  }\n\n  struct Auction {\n    address seller;\n    uint minBid;\n    uint deadline;\n    address highestBidAddress;\n    uint highestBidAmount;\n  }\n\n  event AuctionCreated(\n    address tokenAddress,\n    uint tokenId,\n    address seller,\n    uint minBid,\n    uint deadline\n  );\n\n  event MarketItemCreated (\n    uint indexed itemId,\n    address indexed nftContract,\n    uint256 indexed tokenId,\n    address seller,\n    address owner,\n    uint256 price\n  );\n\n  mapping(address => mapping(uint => Auction)) public auctions;\n  mapping(uint256 => MarketItem) private marketItems;\n  IERC20 public currency;\n  Owner[] public owners;\n\n  modifier validateBalance(\n    address _sender,\n    uint _amount\n  ) {\n    require(currency.balanceOf(_sender) > _amount, 'insufficient founds');\n    _;\n  }\n\n  function getSell(\n    uint256 tokenId\n  ) public view returns (MarketItem memory) {\n    return marketItems[tokenId];\n  }\n\n  /*\n  * Permite que un usuario ponga a la venta un NFT\n  * Valida que el precio de entrada sea mayor a 1\n  * Genera la venta e incrementa la cantidad de items en venta\n  * Hace la transferencia y emite el evento correspondiente\n  */\n  function createMarketItem(\n    address nftContract,\n    uint256 tokenId,\n    uint256 price\n  ) public nonReentrant {\n    require(price > 0, \"Price must be at least 1 wei\");\n\n    _itemIds.increment();\n    uint256 itemId = _itemIds.current();\n  \n    marketItems[itemId] = MarketItem(\n      itemId,\n      nftContract,\n      tokenId,\n      msg.sender,\n      address(0),\n      price\n    );\n\n    IERC721(nftContract).transferFrom(msg.sender, address(this), tokenId);\n\n    emit MarketItemCreated(\n      itemId,\n      nftContract,\n      tokenId,\n      msg.sender,\n      address(0),\n      price\n    );\n  }\n\n  /*\n  * Permite que un usuario pueda comprar un NFT a partir de un address de Smart Contract y un ID\n  * Valida que el usuario tenga suficiente balance del token solicitado\n  * Adicionalmente calcula las regalias correspondientes y hace las transferencias\n  * Incrementa la cantidad de elementos vendidos\n  */\n  function buyNft(\n    address _nftContract,\n    uint256 _itemId\n    ) public nonReentrant validateBalance(msg.sender, marketItems[_itemId].tokenId) {\n    uint price = marketItems[_itemId].price;\n    uint tokenId = marketItems[_itemId].tokenId;\n    uint priceWithoutRoyalties = transferRoyalties(price);\n\n    currency.transferFrom(msg.sender, marketItems[_itemId].seller, priceWithoutRoyalties);\n    IERC721(_nftContract).transferFrom(address(this), msg.sender, tokenId);\n    currency.transferFrom(address(this), msg.sender, tokenId);\n    marketItems[_itemId].owner = msg.sender;\n    _itemsSold.increment();\n  }\n\n  function transferRoyalties(uint _price) internal returns (uint) {\n    uint royaltiesDiscount = 0;\n    for (uint i = 0; i < owners.length; i++) {\n      Owner memory owner = owners[i];\n      uint calculatedAmount = (_price / owner.feePercentage);\n      royaltiesDiscount += calculatedAmount;\n      currency.transferFrom(msg.sender, owner.wallet, calculatedAmount);\n    }\n    return _price - royaltiesDiscount;\n  }\n\n  /*\n  * Obtiene todos los items que fueron publicados en venta\n  */\n  function fetchMarketItems() public view returns (MarketItem[] memory) {\n    uint itemCount = _itemIds.current();\n    uint unsoldItemCount = _itemIds.current() - _itemsSold.current();\n    uint currentIndex = 0;\n\n    MarketItem[] memory items = new MarketItem[](unsoldItemCount);\n    for (uint i = 0; i < itemCount; i++) {\n      if (marketItems[i + 1].owner == address(0)) {\n        uint currentId = marketItems[i + 1].itemId;\n        MarketItem storage currentItem = marketItems[currentId];\n        items[currentIndex] = currentItem;\n        currentIndex += 1;\n      }\n    }\n   \n    return items;\n  }\n\n  /* \n  * Obtiene un listado de los NFTs del usuario\n  */\n  function fetchMyNFTs() public view returns (MarketItem[] memory) {\n    uint totalItemCount = _itemIds.current();\n    uint itemCount = 0;\n    uint currentIndex = 0;\n\n    for (uint i = 0; i < totalItemCount; i++) {\n      if (marketItems[i + 1].owner == msg.sender) {\n        itemCount += 1;\n      }\n    }\n\n    MarketItem[] memory items = new MarketItem[](itemCount);\n    for (uint i = 0; i < totalItemCount; i++) {\n      if (marketItems[i + 1].owner == msg.sender) {\n        uint currentId = marketItems[i + 1].itemId;\n        MarketItem storage currentItem = marketItems[currentId];\n        items[currentIndex] = currentItem;\n        currentIndex += 1;\n      }\n    }\n   \n    return items;\n  }\n\n  /*\n  * Crea una subasta para un NFT a partir de un nftContract, tokenId, minBid y deadline\n  * Emite el evento de Subasta creada\n  */\n  function createAuction(\n    address _nftContract,\n    uint _tokenId,\n    uint _minBid,\n    uint _deadline\n  ) external {\n    Auction storage auction = auctions[_nftContract][_tokenId];\n    require(auction.deadline == 0, 'auction already exist');\n    IERC721(_nftContract).transferFrom(msg.sender, address(this), _tokenId);\n    \n    auction.seller = msg.sender;\n    auction.minBid = _minBid;\n    auction.deadline = _deadline;\n    auction.highestBidAddress = address(0);\n    auction.highestBidAmount = 0;\n\n    emit AuctionCreated({\n      tokenAddress: _nftContract,\n      tokenId: _tokenId,\n      seller: msg.sender,\n      minBid: _minBid,\n      deadline: _deadline\n    });\n  }\n\n  /*\n  * Abre una oferta para la subasta de un nftContract, tokenId y amount\n  * Valida que el usuario tenga el balance del token correspondiente\n  * Que la subasta exista y no haya finalizado y devuelve los fondos al anterior\n  */\n  function createBid(\n    address _nftContract,\n    uint _tokenId, \n    uint _amount\n  ) external validateBalance(msg.sender, _amount) {\n    Auction storage auction = auctions[_nftContract][_tokenId];\n    require(auction.deadline != 0, 'auction does not exist');\n    require(auction.deadline >= block.timestamp, 'auction is finished');\n    require(auction.highestBidAmount < _amount && auction.minBid < _amount, 'bid amount is too low');\n    currency.transferFrom(msg.sender, address(this), _amount);\n    currency.transferFrom(address(this), auction.highestBidAddress, auction.highestBidAmount);\n    auction.highestBidAddress = msg.sender;\n    auction.highestBidAmount = _amount;\n  }\n\n  /*\n  * Cierra la subasta a partir de un nftContract y tokenId\n  * Valida que la subasta haya finalizado y si hubo un ganador o si se le tiene que devolver el NFT al vendedor\n  * Se realizan las transferencias o devoluciones correspondientes y elimina la subasta\n  */\n  function closeAuction(\n    address _nftContract,\n    uint _tokenId\n  ) external {\n    Auction storage auction = auctions[_nftContract][_tokenId];\n    require(auction.deadline != 0, 'auction does not exist');\n    require(auction.deadline < block.timestamp, 'auction is not finished');\n    if (auction.highestBidAmount == 0) {\n      IERC721(_nftContract).transferFrom(address(this), auction.seller, _tokenId);\n      delete auctions[_nftContract][_tokenId];\n    } else {\n      uint priceWithoutRoyalties = transferRoyalties(auction.highestBidAmount);\n      currency.transferFrom(address(this), auction.seller, priceWithoutRoyalties);\n      IERC721(_nftContract).transferFrom(address(this), auction.highestBidAddress, _tokenId);\n      delete auctions[_nftContract][_tokenId];\n    }\n  }\n\n}",
  "sourcePath": "/Users/peyo/Desarrollo/workspaces/LatamCoin/Trick/trick-blockchain/contracts/NFTMarket.sol",
  "compiler": {
    "name": "solc",
    "version": "0.8.0+commit.c7dfd78e.Emscripten.clang"
  },
  "schemaVersion": "3.4.3",
  "updatedAt": "2021-12-07T20:25:56.316Z",
  "networkType": "ethereum",
  "devdoc": {
    "kind": "dev",
    "methods": {},
    "version": 1
  },
  "userdoc": {
    "kind": "user",
    "methods": {},
    "version": 1
  }
}