{
  "contractName": "TrickNFT",
  "abi": [
    {
      "inputs": [
        {
          "internalType": "address",
          "name": "_admin",
          "type": "address"
        }
      ],
      "stateMutability": "nonpayable",
      "type": "constructor"
    },
    {
      "anonymous": false,
      "inputs": [
        {
          "indexed": true,
          "internalType": "address",
          "name": "account",
          "type": "address"
        },
        {
          "indexed": true,
          "internalType": "address",
          "name": "operator",
          "type": "address"
        },
        {
          "indexed": false,
          "internalType": "bool",
          "name": "approved",
          "type": "bool"
        }
      ],
      "name": "ApprovalForAll",
      "type": "event"
    },
    {
      "anonymous": false,
      "inputs": [
        {
          "indexed": true,
          "internalType": "address",
          "name": "operator",
          "type": "address"
        },
        {
          "indexed": true,
          "internalType": "address",
          "name": "from",
          "type": "address"
        },
        {
          "indexed": true,
          "internalType": "address",
          "name": "to",
          "type": "address"
        },
        {
          "indexed": false,
          "internalType": "uint256[]",
          "name": "ids",
          "type": "uint256[]"
        },
        {
          "indexed": false,
          "internalType": "uint256[]",
          "name": "values",
          "type": "uint256[]"
        }
      ],
      "name": "TransferBatch",
      "type": "event"
    },
    {
      "anonymous": false,
      "inputs": [
        {
          "indexed": true,
          "internalType": "address",
          "name": "operator",
          "type": "address"
        },
        {
          "indexed": true,
          "internalType": "address",
          "name": "from",
          "type": "address"
        },
        {
          "indexed": true,
          "internalType": "address",
          "name": "to",
          "type": "address"
        },
        {
          "indexed": false,
          "internalType": "uint256",
          "name": "id",
          "type": "uint256"
        },
        {
          "indexed": false,
          "internalType": "uint256",
          "name": "value",
          "type": "uint256"
        }
      ],
      "name": "TransferSingle",
      "type": "event"
    },
    {
      "anonymous": false,
      "inputs": [
        {
          "indexed": false,
          "internalType": "string",
          "name": "value",
          "type": "string"
        },
        {
          "indexed": true,
          "internalType": "uint256",
          "name": "id",
          "type": "uint256"
        }
      ],
      "name": "URI",
      "type": "event"
    },
    {
      "inputs": [
        {
          "internalType": "address",
          "name": "account",
          "type": "address"
        },
        {
          "internalType": "uint256",
          "name": "id",
          "type": "uint256"
        }
      ],
      "name": "balanceOf",
      "outputs": [
        {
          "internalType": "uint256",
          "name": "",
          "type": "uint256"
        }
      ],
      "stateMutability": "view",
      "type": "function",
      "constant": true
    },
    {
      "inputs": [
        {
          "internalType": "address[]",
          "name": "accounts",
          "type": "address[]"
        },
        {
          "internalType": "uint256[]",
          "name": "ids",
          "type": "uint256[]"
        }
      ],
      "name": "balanceOfBatch",
      "outputs": [
        {
          "internalType": "uint256[]",
          "name": "",
          "type": "uint256[]"
        }
      ],
      "stateMutability": "view",
      "type": "function",
      "constant": true
    },
    {
      "inputs": [
        {
          "internalType": "address",
          "name": "account",
          "type": "address"
        },
        {
          "internalType": "address",
          "name": "operator",
          "type": "address"
        }
      ],
      "name": "isApprovedForAll",
      "outputs": [
        {
          "internalType": "bool",
          "name": "",
          "type": "bool"
        }
      ],
      "stateMutability": "view",
      "type": "function",
      "constant": true
    },
    {
      "inputs": [
        {
          "internalType": "address",
          "name": "from",
          "type": "address"
        },
        {
          "internalType": "address",
          "name": "to",
          "type": "address"
        },
        {
          "internalType": "uint256[]",
          "name": "ids",
          "type": "uint256[]"
        },
        {
          "internalType": "uint256[]",
          "name": "amounts",
          "type": "uint256[]"
        },
        {
          "internalType": "bytes",
          "name": "data",
          "type": "bytes"
        }
      ],
      "name": "safeBatchTransferFrom",
      "outputs": [],
      "stateMutability": "nonpayable",
      "type": "function"
    },
    {
      "inputs": [
        {
          "internalType": "address",
          "name": "from",
          "type": "address"
        },
        {
          "internalType": "address",
          "name": "to",
          "type": "address"
        },
        {
          "internalType": "uint256",
          "name": "id",
          "type": "uint256"
        },
        {
          "internalType": "uint256",
          "name": "amount",
          "type": "uint256"
        },
        {
          "internalType": "bytes",
          "name": "data",
          "type": "bytes"
        }
      ],
      "name": "safeTransferFrom",
      "outputs": [],
      "stateMutability": "nonpayable",
      "type": "function"
    },
    {
      "inputs": [
        {
          "internalType": "address",
          "name": "operator",
          "type": "address"
        },
        {
          "internalType": "bool",
          "name": "approved",
          "type": "bool"
        }
      ],
      "name": "setApprovalForAll",
      "outputs": [],
      "stateMutability": "nonpayable",
      "type": "function"
    },
    {
      "inputs": [
        {
          "internalType": "bytes4",
          "name": "interfaceId",
          "type": "bytes4"
        }
      ],
      "name": "supportsInterface",
      "outputs": [
        {
          "internalType": "bool",
          "name": "",
          "type": "bool"
        }
      ],
      "stateMutability": "view",
      "type": "function",
      "constant": true
    },
    {
      "inputs": [
        {
          "internalType": "uint256",
          "name": "",
          "type": "uint256"
        }
      ],
      "name": "uri",
      "outputs": [
        {
          "internalType": "string",
          "name": "",
          "type": "string"
        }
      ],
      "stateMutability": "view",
      "type": "function",
      "constant": true
    },
    {
      "inputs": [
        {
          "internalType": "uint256",
          "name": "quantity",
          "type": "uint256"
        }
      ],
      "name": "mint",
      "outputs": [
        {
          "internalType": "uint256",
          "name": "",
          "type": "uint256"
        }
      ],
      "stateMutability": "nonpayable",
      "type": "function"
    },
    {
      "inputs": [
        {
          "internalType": "address",
          "name": "_marketplaceAddress",
          "type": "address"
        },
        {
          "internalType": "bool",
          "name": "_approved",
          "type": "bool"
        }
      ],
      "name": "marketplaceApproval",
      "outputs": [],
      "stateMutability": "nonpayable",
      "type": "function"
    },
    {
      "inputs": [
        {
          "internalType": "bool",
          "name": "_onlyAdminMint",
          "type": "bool"
        }
      ],
      "name": "setAdminMint",
      "outputs": [],
      "stateMutability": "nonpayable",
      "type": "function"
    },
    {
      "inputs": [
        {
          "internalType": "address",
          "name": "_admin",
          "type": "address"
        }
      ],
      "name": "updateAdmin",
      "outputs": [],
      "stateMutability": "nonpayable",
      "type": "function"
    }
  ],
  "bytecode": "0x60806040523480156200001157600080fd5b5060405162002d8938038062002d898339818101604052810190620000379190620001a9565b60405180606001604052806022815260200162002d67602291396200006281620000c660201b60201c565b506001600460146101000a81548160ff02191690831515021790555080600560006101000a81548173ffffffffffffffffffffffffffffffffffffffff021916908373ffffffffffffffffffffffffffffffffffffffff1602179055505062000288565b8060029080519060200190620000de929190620000e2565b5050565b828054620000f09062000209565b90600052602060002090601f01602090048101928262000114576000855562000160565b82601f106200012f57805160ff191683800117855562000160565b8280016001018555821562000160579182015b828111156200015f57825182559160200191906001019062000142565b5b5090506200016f919062000173565b5090565b5b808211156200018e57600081600090555060010162000174565b5090565b600081519050620001a3816200026e565b92915050565b600060208284031215620001bc57600080fd5b6000620001cc8482850162000192565b91505092915050565b6000620001e282620001e9565b9050919050565b600073ffffffffffffffffffffffffffffffffffffffff82169050919050565b600060028204905060018216806200022257607f821691505b602082108114156200023957620002386200023f565b5b50919050565b7f4e487b7100000000000000000000000000000000000000000000000000000000600052602260045260246000fd5b6200027981620001d5565b81146200028557600080fd5b50565b612acf80620002986000396000f3fe608060405234801561001057600080fd5b50600436106100b35760003560e01c8063917967641161007157806391796764146101b0578063a0712d68146101cc578063a22cb465146101fc578063e2f273bd14610218578063e985e9c514610234578063f242432a14610264576100b3565b8062fdd58e146100b857806301ffc9a7146100e85780630e89341c146101185780632eb2c2d6146101485780634e1273f41461016457806371eb8f4f14610194575b600080fd5b6100d260048036038101906100cd9190611c29565b610280565b6040516100df91906125b3565b60405180910390f35b61010260048036038101906100fd9190611cfa565b610349565b60405161010f9190612416565b60405180910390f35b610132600480360381019061012d9190611d4c565b61042b565b60405161013f9190612431565b60405180910390f35b610162600480360381019061015d9190611a9f565b6104bf565b005b61017e60048036038101906101799190611c65565b6108b5565b60405161018b91906123bd565b60405180910390f35b6101ae60048036038101906101a99190611bed565b610a66565b005b6101ca60048036038101906101c59190611cd1565b610ae4565b005b6101e660048036038101906101e19190611d4c565b610b01565b6040516101f391906125b3565b60405180910390f35b61021660048036038101906102119190611bed565b610baf565b005b610232600480360381019061022d9190611a3a565b610d30565b005b61024e60048036038101906102499190611a63565b610de4565b60405161025b9190612416565b60405180910390f35b61027e60048036038101906102799190611b5e565b610e78565b005b60008073ffffffffffffffffffffffffffffffffffffffff168373ffffffffffffffffffffffffffffffffffffffff1614156102f1576040517f08c379a00000000000000000000000000000000000000000000000000000000081526004016102e890612493565b60405180910390fd5b60008083815260200190815260200160002060008473ffffffffffffffffffffffffffffffffffffffff1673ffffffffffffffffffffffffffffffffffffffff16815260200190815260200160002054905092915050565b60007fd9b67a26000000000000000000000000000000000000000000000000000000007bffffffffffffffffffffffffffffffffffffffffffffffffffffffff1916827bffffffffffffffffffffffffffffffffffffffffffffffffffffffff1916148061041457507f0e89341c000000000000000000000000000000000000000000000000000000007bffffffffffffffffffffffffffffffffffffffffffffffffffffffff1916827bffffffffffffffffffffffffffffffffffffffffffffffffffffffff1916145b80610424575061042382611190565b5b9050919050565b60606002805461043a90612861565b80601f016020809104026020016040519081016040528092919081815260200182805461046690612861565b80156104b35780601f10610488576101008083540402835291602001916104b3565b820191906000526020600020905b81548152906001019060200180831161049657829003601f168201915b50505050509050919050565b8151835114610503576040517f08c379a00000000000000000000000000000000000000000000000000000000081526004016104fa90612573565b60405180910390fd5b600073ffffffffffffffffffffffffffffffffffffffff168473ffffffffffffffffffffffffffffffffffffffff161415610573576040517f08c379a000000000000000000000000000000000000000000000000000000000815260040161056a906124d3565b60405180910390fd5b61057b6111fa565b73ffffffffffffffffffffffffffffffffffffffff168573ffffffffffffffffffffffffffffffffffffffff1614806105c157506105c0856105bb6111fa565b610de4565b5b610600576040517f08c379a00000000000000000000000000000000000000000000000000000000081526004016105f7906124f3565b60405180910390fd5b600061060a6111fa565b905061061a818787878787611202565b60005b8451811015610820576000858281518110610661577f4e487b7100000000000000000000000000000000000000000000000000000000600052603260045260246000fd5b6020026020010151905060008583815181106106a6577f4e487b7100000000000000000000000000000000000000000000000000000000600052603260045260246000fd5b60200260200101519050600080600084815260200190815260200160002060008b73ffffffffffffffffffffffffffffffffffffffff1673ffffffffffffffffffffffffffffffffffffffff16815260200190815260200160002054905081811015610747576040517f08c379a000000000000000000000000000000000000000000000000000000000815260040161073e90612513565b60405180910390fd5b81816107539190612777565b60008085815260200190815260200160002060008c73ffffffffffffffffffffffffffffffffffffffff1673ffffffffffffffffffffffffffffffffffffffff168152602001908152602001600020819055508160008085815260200190815260200160002060008b73ffffffffffffffffffffffffffffffffffffffff1673ffffffffffffffffffffffffffffffffffffffff16815260200190815260200160002060008282546108059190612721565b925050819055505050508061081990612893565b905061061d565b508473ffffffffffffffffffffffffffffffffffffffff168673ffffffffffffffffffffffffffffffffffffffff168273ffffffffffffffffffffffffffffffffffffffff167f4a39dc06d4c0dbc64b70af90fd698a233a518aa5d07e595d983b8c0526c8f7fb87876040516108979291906123df565b60405180910390a46108ad81878787878761120a565b505050505050565b606081518351146108fb576040517f08c379a00000000000000000000000000000000000000000000000000000000081526004016108f290612553565b60405180910390fd5b6000835167ffffffffffffffff81111561093e577f4e487b7100000000000000000000000000000000000000000000000000000000600052604160045260246000fd5b60405190808252806020026020018201604052801561096c5781602001602082028036833780820191505090505b50905060005b8451811015610a5b57610a058582815181106109b7577f4e487b7100000000000000000000000000000000000000000000000000000000600052603260045260246000fd5b60200260200101518583815181106109f8577f4e487b7100000000000000000000000000000000000000000000000000000000600052603260045260246000fd5b6020026020010151610280565b828281518110610a3e577f4e487b7100000000000000000000000000000000000000000000000000000000600052603260045260246000fd5b60200260200101818152505080610a5490612893565b9050610972565b508091505092915050565b600460149054906101000a900460ff1615610ad657600560009054906101000a900473ffffffffffffffffffffffffffffffffffffffff1673ffffffffffffffffffffffffffffffffffffffff163373ffffffffffffffffffffffffffffffffffffffff1614610ad557600080fd5b5b610ae08282610baf565b5050565b80600460146101000a81548160ff02191690831515021790555050565b6000600460149054906101000a900460ff1615610b7357600560009054906101000a900473ffffffffffffffffffffffffffffffffffffffff1673ffffffffffffffffffffffffffffffffffffffff163373ffffffffffffffffffffffffffffffffffffffff1614610b7257600080fd5b5b610b7d60036113da565b6000610b8960036113f0565b9050610ba6338285604051806020016040528060008152506113fe565b80915050919050565b8173ffffffffffffffffffffffffffffffffffffffff16610bce6111fa565b73ffffffffffffffffffffffffffffffffffffffff161415610c25576040517f08c379a0000000000000000000000000000000000000000000000000000000008152600401610c1c90612533565b60405180910390fd5b8060016000610c326111fa565b73ffffffffffffffffffffffffffffffffffffffff1673ffffffffffffffffffffffffffffffffffffffff16815260200190815260200160002060008473ffffffffffffffffffffffffffffffffffffffff1673ffffffffffffffffffffffffffffffffffffffff16815260200190815260200160002060006101000a81548160ff0219169083151502179055508173ffffffffffffffffffffffffffffffffffffffff16610cdf6111fa565b73ffffffffffffffffffffffffffffffffffffffff167f17307eab39ab6107e8899845ad3d59bd9653f200f220920489ca2b5937696c3183604051610d249190612416565b60405180910390a35050565b600460149054906101000a900460ff1615610da057600560009054906101000a900473ffffffffffffffffffffffffffffffffffffffff1673ffffffffffffffffffffffffffffffffffffffff163373ffffffffffffffffffffffffffffffffffffffff1614610d9f57600080fd5b5b80600560006101000a81548173ffffffffffffffffffffffffffffffffffffffff021916908373ffffffffffffffffffffffffffffffffffffffff16021790555050565b6000600160008473ffffffffffffffffffffffffffffffffffffffff1673ffffffffffffffffffffffffffffffffffffffff16815260200190815260200160002060008373ffffffffffffffffffffffffffffffffffffffff1673ffffffffffffffffffffffffffffffffffffffff16815260200190815260200160002060009054906101000a900460ff16905092915050565b600073ffffffffffffffffffffffffffffffffffffffff168473ffffffffffffffffffffffffffffffffffffffff161415610ee8576040517f08c379a0000000000000000000000000000000000000000000000000000000008152600401610edf906124d3565b60405180910390fd5b610ef06111fa565b73ffffffffffffffffffffffffffffffffffffffff168573ffffffffffffffffffffffffffffffffffffffff161480610f365750610f3585610f306111fa565b610de4565b5b610f75576040517f08c379a0000000000000000000000000000000000000000000000000000000008152600401610f6c906124b3565b60405180910390fd5b6000610f7f6111fa565b9050610f9f818787610f9088611594565b610f9988611594565b87611202565b600080600086815260200190815260200160002060008873ffffffffffffffffffffffffffffffffffffffff1673ffffffffffffffffffffffffffffffffffffffff16815260200190815260200160002054905083811015611036576040517f08c379a000000000000000000000000000000000000000000000000000000000815260040161102d90612513565b60405180910390fd5b83816110429190612777565b60008087815260200190815260200160002060008973ffffffffffffffffffffffffffffffffffffffff1673ffffffffffffffffffffffffffffffffffffffff168152602001908152602001600020819055508360008087815260200190815260200160002060008873ffffffffffffffffffffffffffffffffffffffff1673ffffffffffffffffffffffffffffffffffffffff16815260200190815260200160002060008282546110f49190612721565b925050819055508573ffffffffffffffffffffffffffffffffffffffff168773ffffffffffffffffffffffffffffffffffffffff168373ffffffffffffffffffffffffffffffffffffffff167fc3d58168c5ae7397731d063d5bbf3d657854427343f4c083240f7aacaa2d0f6288886040516111719291906125ce565b60405180910390a461118782888888888861165a565b50505050505050565b60007f01ffc9a7000000000000000000000000000000000000000000000000000000007bffffffffffffffffffffffffffffffffffffffffffffffffffffffff1916827bffffffffffffffffffffffffffffffffffffffffffffffffffffffff1916149050919050565b600033905090565b505050505050565b6112298473ffffffffffffffffffffffffffffffffffffffff1661182a565b156113d2578373ffffffffffffffffffffffffffffffffffffffff1663bc197c8187878686866040518663ffffffff1660e01b815260040161126f9594939291906122fb565b602060405180830381600087803b15801561128957600080fd5b505af19250505080156112ba57506040513d601f19601f820116820180604052508101906112b79190611d23565b60015b611349576112c6612987565b806112d1575061130e565b806040517f08c379a00000000000000000000000000000000000000000000000000000000081526004016113059190612431565b60405180910390fd5b6040517f08c379a000000000000000000000000000000000000000000000000000000000815260040161134090612453565b60405180910390fd5b63bc197c8160e01b7bffffffffffffffffffffffffffffffffffffffffffffffffffffffff1916817bffffffffffffffffffffffffffffffffffffffffffffffffffffffff1916146113d0576040517f08c379a00000000000000000000000000000000000000000000000000000000081526004016113c790612473565b60405180910390fd5b505b505050505050565b6001816000016000828254019250508190555050565b600081600001549050919050565b600073ffffffffffffffffffffffffffffffffffffffff168473ffffffffffffffffffffffffffffffffffffffff16141561146e576040517f08c379a000000000000000000000000000000000000000000000000000000000815260040161146590612593565b60405180910390fd5b60006114786111fa565b90506114998160008761148a88611594565b61149388611594565b87611202565b8260008086815260200190815260200160002060008773ffffffffffffffffffffffffffffffffffffffff1673ffffffffffffffffffffffffffffffffffffffff16815260200190815260200160002060008282546114f89190612721565b925050819055508473ffffffffffffffffffffffffffffffffffffffff16600073ffffffffffffffffffffffffffffffffffffffff168273ffffffffffffffffffffffffffffffffffffffff167fc3d58168c5ae7397731d063d5bbf3d657854427343f4c083240f7aacaa2d0f6287876040516115769291906125ce565b60405180910390a461158d8160008787878761165a565b5050505050565b60606000600167ffffffffffffffff8111156115d9577f4e487b7100000000000000000000000000000000000000000000000000000000600052604160045260246000fd5b6040519080825280602002602001820160405280156116075781602001602082028036833780820191505090505b5090508281600081518110611645577f4e487b7100000000000000000000000000000000000000000000000000000000600052603260045260246000fd5b60200260200101818152505080915050919050565b6116798473ffffffffffffffffffffffffffffffffffffffff1661182a565b15611822578373ffffffffffffffffffffffffffffffffffffffff1663f23a6e6187878686866040518663ffffffff1660e01b81526004016116bf959493929190612363565b602060405180830381600087803b1580156116d957600080fd5b505af192505050801561170a57506040513d601f19601f820116820180604052508101906117079190611d23565b60015b61179957611716612987565b80611721575061175e565b806040517f08c379a00000000000000000000000000000000000000000000000000000000081526004016117559190612431565b60405180910390fd5b6040517f08c379a000000000000000000000000000000000000000000000000000000000815260040161179090612453565b60405180910390fd5b63f23a6e6160e01b7bffffffffffffffffffffffffffffffffffffffffffffffffffffffff1916817bffffffffffffffffffffffffffffffffffffffffffffffffffffffff191614611820576040517f08c379a000000000000000000000000000000000000000000000000000000000815260040161181790612473565b60405180910390fd5b505b505050505050565b600080823b905060008111915050919050565b600061185061184b84612628565b6125f7565b9050808382526020820190508285602086028201111561186f57600080fd5b60005b8581101561189f57816118858882611953565b845260208401935060208301925050600181019050611872565b5050509392505050565b60006118bc6118b784612654565b6125f7565b905080838252602082019050828560208602820111156118db57600080fd5b60005b8581101561190b57816118f18882611a25565b8452602084019350602083019250506001810190506118de565b5050509392505050565b600061192861192384612680565b6125f7565b90508281526020810184848401111561194057600080fd5b61194b84828561281f565b509392505050565b60008135905061196281612a3d565b92915050565b600082601f83011261197957600080fd5b813561198984826020860161183d565b91505092915050565b600082601f8301126119a357600080fd5b81356119b38482602086016118a9565b91505092915050565b6000813590506119cb81612a54565b92915050565b6000813590506119e081612a6b565b92915050565b6000815190506119f581612a6b565b92915050565b600082601f830112611a0c57600080fd5b8135611a1c848260208601611915565b91505092915050565b600081359050611a3481612a82565b92915050565b600060208284031215611a4c57600080fd5b6000611a5a84828501611953565b91505092915050565b60008060408385031215611a7657600080fd5b6000611a8485828601611953565b9250506020611a9585828601611953565b9150509250929050565b600080600080600060a08688031215611ab757600080fd5b6000611ac588828901611953565b9550506020611ad688828901611953565b945050604086013567ffffffffffffffff811115611af357600080fd5b611aff88828901611992565b935050606086013567ffffffffffffffff811115611b1c57600080fd5b611b2888828901611992565b925050608086013567ffffffffffffffff811115611b4557600080fd5b611b51888289016119fb565b9150509295509295909350565b600080600080600060a08688031215611b7657600080fd5b6000611b8488828901611953565b9550506020611b9588828901611953565b9450506040611ba688828901611a25565b9350506060611bb788828901611a25565b925050608086013567ffffffffffffffff811115611bd457600080fd5b611be0888289016119fb565b9150509295509295909350565b60008060408385031215611c0057600080fd5b6000611c0e85828601611953565b9250506020611c1f858286016119bc565b9150509250929050565b60008060408385031215611c3c57600080fd5b6000611c4a85828601611953565b9250506020611c5b85828601611a25565b9150509250929050565b60008060408385031215611c7857600080fd5b600083013567ffffffffffffffff811115611c9257600080fd5b611c9e85828601611968565b925050602083013567ffffffffffffffff811115611cbb57600080fd5b611cc785828601611992565b9150509250929050565b600060208284031215611ce357600080fd5b6000611cf1848285016119bc565b91505092915050565b600060208284031215611d0c57600080fd5b6000611d1a848285016119d1565b91505092915050565b600060208284031215611d3557600080fd5b6000611d43848285016119e6565b91505092915050565b600060208284031215611d5e57600080fd5b6000611d6c84828501611a25565b91505092915050565b6000611d8183836122dd565b60208301905092915050565b611d96816127ab565b82525050565b6000611da7826126c0565b611db181856126ee565b9350611dbc836126b0565b8060005b83811015611ded578151611dd48882611d75565b9750611ddf836126e1565b925050600181019050611dc0565b5085935050505092915050565b611e03816127bd565b82525050565b6000611e14826126cb565b611e1e81856126ff565b9350611e2e81856020860161282e565b611e3781612969565b840191505092915050565b6000611e4d826126d6565b611e578185612710565b9350611e6781856020860161282e565b611e7081612969565b840191505092915050565b6000611e88603483612710565b91507f455243313135353a207472616e7366657220746f206e6f6e204552433131353560008301527f526563656976657220696d706c656d656e7465720000000000000000000000006020830152604082019050919050565b6000611eee602883612710565b91507f455243313135353a204552433131353552656365697665722072656a6563746560008301527f6420746f6b656e730000000000000000000000000000000000000000000000006020830152604082019050919050565b6000611f54602b83612710565b91507f455243313135353a2062616c616e636520717565727920666f7220746865207a60008301527f65726f20616464726573730000000000000000000000000000000000000000006020830152604082019050919050565b6000611fba602983612710565b91507f455243313135353a2063616c6c6572206973206e6f74206f776e6572206e6f7260008301527f20617070726f76656400000000000000000000000000000000000000000000006020830152604082019050919050565b6000612020602583612710565b91507f455243313135353a207472616e7366657220746f20746865207a65726f20616460008301527f64726573730000000000000000000000000000000000000000000000000000006020830152604082019050919050565b6000612086603283612710565b91507f455243313135353a207472616e736665722063616c6c6572206973206e6f742060008301527f6f776e6572206e6f7220617070726f76656400000000000000000000000000006020830152604082019050919050565b60006120ec602a83612710565b91507f455243313135353a20696e73756666696369656e742062616c616e636520666f60008301527f72207472616e73666572000000000000000000000000000000000000000000006020830152604082019050919050565b6000612152602983612710565b91507f455243313135353a2073657474696e6720617070726f76616c2073746174757360008301527f20666f722073656c6600000000000000000000000000000000000000000000006020830152604082019050919050565b60006121b8602983612710565b91507f455243313135353a206163636f756e747320616e6420696473206c656e67746860008301527f206d69736d6174636800000000000000000000000000000000000000000000006020830152604082019050919050565b600061221e602883612710565b91507f455243313135353a2069647320616e6420616d6f756e7473206c656e6774682060008301527f6d69736d617463680000000000000000000000000000000000000000000000006020830152604082019050919050565b6000612284602183612710565b91507f455243313135353a206d696e7420746f20746865207a65726f2061646472657360008301527f73000000000000000000000000000000000000000000000000000000000000006020830152604082019050919050565b6122e681612815565b82525050565b6122f581612815565b82525050565b600060a0820190506123106000830188611d8d565b61231d6020830187611d8d565b818103604083015261232f8186611d9c565b905081810360608301526123438185611d9c565b905081810360808301526123578184611e09565b90509695505050505050565b600060a0820190506123786000830188611d8d565b6123856020830187611d8d565b61239260408301866122ec565b61239f60608301856122ec565b81810360808301526123b18184611e09565b90509695505050505050565b600060208201905081810360008301526123d78184611d9c565b905092915050565b600060408201905081810360008301526123f98185611d9c565b9050818103602083015261240d8184611d9c565b90509392505050565b600060208201905061242b6000830184611dfa565b92915050565b6000602082019050818103600083015261244b8184611e42565b905092915050565b6000602082019050818103600083015261246c81611e7b565b9050919050565b6000602082019050818103600083015261248c81611ee1565b9050919050565b600060208201905081810360008301526124ac81611f47565b9050919050565b600060208201905081810360008301526124cc81611fad565b9050919050565b600060208201905081810360008301526124ec81612013565b9050919050565b6000602082019050818103600083015261250c81612079565b9050919050565b6000602082019050818103600083015261252c816120df565b9050919050565b6000602082019050818103600083015261254c81612145565b9050919050565b6000602082019050818103600083015261256c816121ab565b9050919050565b6000602082019050818103600083015261258c81612211565b9050919050565b600060208201905081810360008301526125ac81612277565b9050919050565b60006020820190506125c860008301846122ec565b92915050565b60006040820190506125e360008301856122ec565b6125f060208301846122ec565b9392505050565b6000604051905081810181811067ffffffffffffffff8211171561261e5761261d61293a565b5b8060405250919050565b600067ffffffffffffffff8211156126435761264261293a565b5b602082029050602081019050919050565b600067ffffffffffffffff82111561266f5761266e61293a565b5b602082029050602081019050919050565b600067ffffffffffffffff82111561269b5761269a61293a565b5b601f19601f8301169050602081019050919050565b6000819050602082019050919050565b600081519050919050565b600081519050919050565b600081519050919050565b6000602082019050919050565b600082825260208201905092915050565b600082825260208201905092915050565b600082825260208201905092915050565b600061272c82612815565b915061273783612815565b9250827fffffffffffffffffffffffffffffffffffffffffffffffffffffffffffffffff0382111561276c5761276b6128dc565b5b828201905092915050565b600061278282612815565b915061278d83612815565b9250828210156127a05761279f6128dc565b5b828203905092915050565b60006127b6826127f5565b9050919050565b60008115159050919050565b60007fffffffff0000000000000000000000000000000000000000000000000000000082169050919050565b600073ffffffffffffffffffffffffffffffffffffffff82169050919050565b6000819050919050565b82818337600083830152505050565b60005b8381101561284c578082015181840152602081019050612831565b8381111561285b576000848401525b50505050565b6000600282049050600182168061287957607f821691505b6020821081141561288d5761288c61290b565b5b50919050565b600061289e82612815565b91507fffffffffffffffffffffffffffffffffffffffffffffffffffffffffffffffff8214156128d1576128d06128dc565b5b600182019050919050565b7f4e487b7100000000000000000000000000000000000000000000000000000000600052601160045260246000fd5b7f4e487b7100000000000000000000000000000000000000000000000000000000600052602260045260246000fd5b7f4e487b7100000000000000000000000000000000000000000000000000000000600052604160045260246000fd5b6000601f19601f8301169050919050565b60008160e01c9050919050565b600060443d101561299757612a3a565b60046000803e6129a860005161297a565b6308c379a081146129b95750612a3a565b60405160043d036004823e80513d602482011167ffffffffffffffff821117156129e557505050612a3a565b808201805167ffffffffffffffff811115612a04575050505050612a3a565b8060208301013d8501811115612a1f57505050505050612a3a565b612a2882612969565b60208401016040528296505050505050505b90565b612a46816127ab565b8114612a5157600080fd5b50565b612a5d816127bd565b8114612a6857600080fd5b50565b612a74816127c9565b8114612a7f57600080fd5b50565b612a8b81612815565b8114612a9657600080fd5b5056fea26469706673582212203f7397c133448b141edde34d482a11a100ac206a74d19352bbd425ea055f536c64736f6c6343000800003368747470733a2f2f6170692e747269636b6e6674732e636f6d2f6e66742f7b69647d",
  "immutableReferences": {},
  "source": "pragma solidity ^0.8.0;\r\n\r\nimport \"@openzeppelin/contracts/token/ERC1155/ERC1155.sol\";\r\nimport \"@openzeppelin/contracts/utils/Counters.sol\";\r\n\r\ncontract TrickNFT is ERC1155 {\r\n  using Counters for Counters.Counter;\r\n  Counters.Counter private _tokenIds;\r\n  address marketplaceAddress;\r\n\r\n  bool onlyAdminMint;\r\n  address admin;\r\n\r\n  constructor(address _admin) ERC1155(\"https://api.tricknfts.com/nft/{id}\") {\r\n    onlyAdminMint = true;\r\n    admin = _admin;\r\n  }\r\n\r\n  modifier onlyAdmin() {\r\n    if (onlyAdminMint) {\r\n      require(msg.sender == admin);\r\n    }\r\n    _;\r\n  }\r\n\r\n  function mint(uint quantity) public onlyAdmin() returns (uint) {\r\n    _tokenIds.increment();\r\n    uint256 newItemId = _tokenIds.current();\r\n    _mint(msg.sender, newItemId, quantity, \"\");\r\n    return newItemId;\r\n  }\r\n\r\n  function marketplaceApproval(address _marketplaceAddress, bool _approved) public onlyAdmin() {\r\n    setApprovalForAll(_marketplaceAddress, _approved);\r\n  }\r\n\r\n  function setAdminMint(bool _onlyAdminMint) public {\r\n    onlyAdminMint = _onlyAdminMint;\r\n  }\r\n\r\n  function updateAdmin(address _admin) public onlyAdmin() {\r\n    admin = _admin;\r\n  }\r\n\r\n}",
  "sourcePath": "/Users/peyo/Desarrollo/workspaces/LatamCoin/Trick/trick-blockchain/contracts/TrickNFT.sol",
  "compiler": {
    "name": "solc",
    "version": "0.8.0+commit.c7dfd78e.Emscripten.clang"
  },
  "schemaVersion": "3.4.3",
  "updatedAt": "2022-01-26T03:25:33.186Z",
  "networkType": "ethereum",
  "devdoc": {
    "kind": "dev",
    "methods": {
      "balanceOf(address,uint256)": {
        "details": "See {IERC1155-balanceOf}. Requirements: - `account` cannot be the zero address."
      },
      "balanceOfBatch(address[],uint256[])": {
        "details": "See {IERC1155-balanceOfBatch}. Requirements: - `accounts` and `ids` must have the same length."
      },
      "isApprovedForAll(address,address)": {
        "details": "See {IERC1155-isApprovedForAll}."
      },
      "safeBatchTransferFrom(address,address,uint256[],uint256[],bytes)": {
        "details": "See {IERC1155-safeBatchTransferFrom}."
      },
      "safeTransferFrom(address,address,uint256,uint256,bytes)": {
        "details": "See {IERC1155-safeTransferFrom}."
      },
      "setApprovalForAll(address,bool)": {
        "details": "See {IERC1155-setApprovalForAll}."
      },
      "supportsInterface(bytes4)": {
        "details": "See {IERC165-supportsInterface}."
      },
      "uri(uint256)": {
        "details": "See {IERC1155MetadataURI-uri}. This implementation returns the same URI for *all* token types. It relies on the token type ID substitution mechanism https://eips.ethereum.org/EIPS/eip-1155#metadata[defined in the EIP]. Clients calling this function must replace the `\\{id\\}` substring with the actual token type ID."
      }
    },
    "version": 1
  },
  "userdoc": {
    "kind": "user",
    "methods": {},
    "version": 1
  }
}