{
  "contractName": "TrickCoin",
  "abi": [
    {
      "inputs": [
        {
          "internalType": "address",
          "name": "_trustedForwarder",
          "type": "address"
        }
      ],
      "stateMutability": "nonpayable",
      "type": "constructor"
    },
    {
      "anonymous": false,
      "inputs": [
        {
          "indexed": true,
          "internalType": "address",
          "name": "owner",
          "type": "address"
        },
        {
          "indexed": true,
          "internalType": "address",
          "name": "spender",
          "type": "address"
        },
        {
          "indexed": false,
          "internalType": "uint256",
          "name": "value",
          "type": "uint256"
        }
      ],
      "name": "Approval",
      "type": "event"
    },
    {
      "anonymous": false,
      "inputs": [
        {
          "indexed": true,
          "internalType": "address",
          "name": "from",
          "type": "address"
        },
        {
          "indexed": true,
          "internalType": "address",
          "name": "to",
          "type": "address"
        },
        {
          "indexed": false,
          "internalType": "uint256",
          "name": "value",
          "type": "uint256"
        }
      ],
      "name": "Transfer",
      "type": "event"
    },
    {
      "inputs": [
        {
          "internalType": "address",
          "name": "owner",
          "type": "address"
        },
        {
          "internalType": "address",
          "name": "spender",
          "type": "address"
        }
      ],
      "name": "allowance",
      "outputs": [
        {
          "internalType": "uint256",
          "name": "",
          "type": "uint256"
        }
      ],
      "stateMutability": "view",
      "type": "function"
    },
    {
      "inputs": [
        {
          "internalType": "address",
          "name": "spender",
          "type": "address"
        },
        {
          "internalType": "uint256",
          "name": "amount",
          "type": "uint256"
        }
      ],
      "name": "approve",
      "outputs": [
        {
          "internalType": "bool",
          "name": "",
          "type": "bool"
        }
      ],
      "stateMutability": "nonpayable",
      "type": "function"
    },
    {
      "inputs": [
        {
          "internalType": "address",
          "name": "account",
          "type": "address"
        }
      ],
      "name": "balanceOf",
      "outputs": [
        {
          "internalType": "uint256",
          "name": "",
          "type": "uint256"
        }
      ],
      "stateMutability": "view",
      "type": "function"
    },
    {
      "inputs": [
        {
          "internalType": "address",
          "name": "spender",
          "type": "address"
        },
        {
          "internalType": "uint256",
          "name": "subtractedValue",
          "type": "uint256"
        }
      ],
      "name": "decreaseAllowance",
      "outputs": [
        {
          "internalType": "bool",
          "name": "",
          "type": "bool"
        }
      ],
      "stateMutability": "nonpayable",
      "type": "function"
    },
    {
      "inputs": [
        {
          "internalType": "address",
          "name": "spender",
          "type": "address"
        },
        {
          "internalType": "uint256",
          "name": "addedValue",
          "type": "uint256"
        }
      ],
      "name": "increaseAllowance",
      "outputs": [
        {
          "internalType": "bool",
          "name": "",
          "type": "bool"
        }
      ],
      "stateMutability": "nonpayable",
      "type": "function"
    },
    {
      "inputs": [
        {
          "internalType": "address",
          "name": "forwarder",
          "type": "address"
        }
      ],
      "name": "isTrustedForwarder",
      "outputs": [
        {
          "internalType": "bool",
          "name": "",
          "type": "bool"
        }
      ],
      "stateMutability": "view",
      "type": "function"
    },
    {
      "inputs": [],
      "name": "name",
      "outputs": [
        {
          "internalType": "string",
          "name": "",
          "type": "string"
        }
      ],
      "stateMutability": "view",
      "type": "function"
    },
    {
      "inputs": [],
      "name": "symbol",
      "outputs": [
        {
          "internalType": "string",
          "name": "",
          "type": "string"
        }
      ],
      "stateMutability": "view",
      "type": "function"
    },
    {
      "inputs": [],
      "name": "totalSupply",
      "outputs": [
        {
          "internalType": "uint256",
          "name": "",
          "type": "uint256"
        }
      ],
      "stateMutability": "view",
      "type": "function"
    },
    {
      "inputs": [
        {
          "internalType": "address",
          "name": "recipient",
          "type": "address"
        },
        {
          "internalType": "uint256",
          "name": "amount",
          "type": "uint256"
        }
      ],
      "name": "transfer",
      "outputs": [
        {
          "internalType": "bool",
          "name": "",
          "type": "bool"
        }
      ],
      "stateMutability": "nonpayable",
      "type": "function"
    },
    {
      "inputs": [
        {
          "internalType": "address",
          "name": "sender",
          "type": "address"
        },
        {
          "internalType": "address",
          "name": "recipient",
          "type": "address"
        },
        {
          "internalType": "uint256",
          "name": "amount",
          "type": "uint256"
        }
      ],
      "name": "transferFrom",
      "outputs": [
        {
          "internalType": "bool",
          "name": "",
          "type": "bool"
        }
      ],
      "stateMutability": "nonpayable",
      "type": "function"
    },
    {
      "inputs": [],
      "name": "trustedForwarder",
      "outputs": [
        {
          "internalType": "address",
          "name": "",
          "type": "address"
        }
      ],
      "stateMutability": "view",
      "type": "function"
    },
    {
      "inputs": [],
      "name": "versionRecipient",
      "outputs": [
        {
          "internalType": "string",
          "name": "",
          "type": "string"
        }
      ],
      "stateMutability": "view",
      "type": "function"
    },
    {
      "inputs": [],
      "name": "decimals",
      "outputs": [
        {
          "internalType": "uint8",
          "name": "",
          "type": "uint8"
        }
      ],
      "stateMutability": "view",
      "type": "function"
    }
  ],
  "bytecode": "0x60806040526040518060400160405280600581526020017f322e322e30000000000000000000000000000000000000000000000000000000815250600690805190602001906200005192919062000334565b503480156200005f57600080fd5b5060405162001ddd38038062001ddd8339818101604052810190620000859190620003fb565b6040518060400160405280600981526020017f547269636b436f696e00000000000000000000000000000000000000000000008152506040518060400160405280600481526020017f5452434b0000000000000000000000000000000000000000000000000000000081525081600390805190602001906200010992919062000334565b5080600490805190602001906200012292919062000334565b50505062000136816200017d60201b60201c565b62000176336200014b620001c160201b60201c565b600a62000159919062000582565b6305f5e1006200016a9190620006bf565b620001ca60201b60201c565b5062000826565b80600560006101000a81548173ffffffffffffffffffffffffffffffffffffffff021916908373ffffffffffffffffffffffffffffffffffffffff16021790555050565b60006004905090565b600073ffffffffffffffffffffffffffffffffffffffff168273ffffffffffffffffffffffffffffffffffffffff1614156200023d576040517f08c379a000000000000000000000000000000000000000000000000000000000815260040162000234906200047a565b60405180910390fd5b62000251600083836200032f60201b60201c565b8060026000828254620002659190620004ca565b92505081905550806000808473ffffffffffffffffffffffffffffffffffffffff1673ffffffffffffffffffffffffffffffffffffffff1681526020019081526020016000206000828254620002bc9190620004ca565b925050819055508173ffffffffffffffffffffffffffffffffffffffff16600073ffffffffffffffffffffffffffffffffffffffff167fddf252ad1be2c89b69c2b068fc378daa952ba7f163c4a11628f55a4df523b3ef836040516200032391906200049c565b60405180910390a35050565b505050565b82805462000342906200076b565b90600052602060002090601f016020900481019282620003665760008555620003b2565b82601f106200038157805160ff1916838001178555620003b2565b82800160010185558215620003b2579182015b82811115620003b157825182559160200191906001019062000394565b5b509050620003c19190620003c5565b5090565b5b80821115620003e0576000816000905550600101620003c6565b5090565b600081519050620003f5816200080c565b92915050565b6000602082840312156200040e57600080fd5b60006200041e84828501620003e4565b91505092915050565b600062000436601f83620004b9565b91507f45524332303a206d696e7420746f20746865207a65726f2061646472657373006000830152602082019050919050565b620004748162000754565b82525050565b60006020820190508181036000830152620004958162000427565b9050919050565b6000602082019050620004b3600083018462000469565b92915050565b600082825260208201905092915050565b6000620004d78262000754565b9150620004e48362000754565b9250827fffffffffffffffffffffffffffffffffffffffffffffffffffffffffffffffff038211156200051c576200051b620007a1565b5b828201905092915050565b6000808291508390505b60018511156200057957808604811115620005515762000550620007a1565b5b6001851615620005615780820291505b80810290506200057185620007ff565b945062000531565b94509492505050565b60006200058f8262000754565b91506200059c836200075e565b9250620005cb7fffffffffffffffffffffffffffffffffffffffffffffffffffffffffffffffff8484620005d3565b905092915050565b600082620005e55760019050620006b8565b81620005f55760009050620006b8565b81600181146200060e576002811462000619576200064f565b6001915050620006b8565b60ff8411156200062e576200062d620007a1565b5b8360020a915084821115620006485762000647620007a1565b5b50620006b8565b5060208310610133831016604e8410600b8410161715620006895782820a905083811115620006835762000682620007a1565b5b620006b8565b62000698848484600162000527565b92509050818404811115620006b257620006b1620007a1565b5b81810290505b9392505050565b6000620006cc8262000754565b9150620006d98362000754565b9250817fffffffffffffffffffffffffffffffffffffffffffffffffffffffffffffffff0483118215151615620007155762000714620007a1565b5b828202905092915050565b60006200072d8262000734565b9050919050565b600073ffffffffffffffffffffffffffffffffffffffff82169050919050565b6000819050919050565b600060ff82169050919050565b600060028204905060018216806200078457607f821691505b602082108114156200079b576200079a620007d0565b5b50919050565b7f4e487b7100000000000000000000000000000000000000000000000000000000600052601160045260246000fd5b7f4e487b7100000000000000000000000000000000000000000000000000000000600052602260045260246000fd5b60008160011c9050919050565b620008178162000720565b81146200082357600080fd5b50565b6115a780620008366000396000f3fe608060405234801561001057600080fd5b50600436106100ea5760003560e01c8063572b6c051161008c57806395d89b411161006657806395d89b4114610275578063a457c2d714610293578063a9059cbb146102c3578063dd62ed3e146102f3576100ea565b8063572b6c05146101f757806370a08231146102275780637da0a87714610257576100ea565b806323b872dd116100c857806323b872dd1461015b578063313ce5671461018b57806339509351146101a9578063486ff0cd146101d9576100ea565b806306fdde03146100ef578063095ea7b31461010d57806318160ddd1461013d575b600080fd5b6100f7610323565b604051610104919061123c565b60405180910390f35b61012760048036038101906101229190610e8b565b6103b5565b6040516101349190611221565b60405180910390f35b6101456103d3565b604051610152919061133e565b60405180910390f35b61017560048036038101906101709190610e3c565b6103dd565b6040516101829190611221565b60405180910390f35b6101936104de565b6040516101a09190611359565b60405180910390f35b6101c360048036038101906101be9190610e8b565b6104e7565b6040516101d09190611221565b60405180910390f35b6101e1610593565b6040516101ee919061123c565b60405180910390f35b610211600480360381019061020c9190610dd7565b610621565b60405161021e9190611221565b60405180910390f35b610241600480360381019061023c9190610dd7565b61067b565b60405161024e919061133e565b60405180910390f35b61025f6106c3565b60405161026c9190611206565b60405180910390f35b61027d6106ed565b60405161028a919061123c565b60405180910390f35b6102ad60048036038101906102a89190610e8b565b61077f565b6040516102ba9190611221565b60405180910390f35b6102dd60048036038101906102d89190610e8b565b610873565b6040516102ea9190611221565b60405180910390f35b61030d60048036038101906103089190610e00565b610891565b60405161031a919061133e565b60405180910390f35b606060038054610332906114a2565b80601f016020809104026020016040519081016040528092919081815260200182805461035e906114a2565b80156103ab5780601f10610380576101008083540402835291602001916103ab565b820191906000526020600020905b81548152906001019060200180831161038e57829003601f168201915b5050505050905090565b60006103c96103c2610918565b8484610927565b6001905092915050565b6000600254905090565b60006103ea848484610af2565b6000600160008673ffffffffffffffffffffffffffffffffffffffff1673ffffffffffffffffffffffffffffffffffffffff1681526020019081526020016000206000610435610918565b73ffffffffffffffffffffffffffffffffffffffff1673ffffffffffffffffffffffffffffffffffffffff168152602001908152602001600020549050828110156104b5576040517f08c379a00000000000000000000000000000000000000000000000000000000081526004016104ac906112be565b60405180910390fd5b6104d2856104c1610918565b85846104cd91906113e6565b610927565b60019150509392505050565b60006004905090565b60006105896104f4610918565b848460016000610502610918565b73ffffffffffffffffffffffffffffffffffffffff1673ffffffffffffffffffffffffffffffffffffffff16815260200190815260200160002060008873ffffffffffffffffffffffffffffffffffffffff1673ffffffffffffffffffffffffffffffffffffffff168152602001908152602001600020546105849190611390565b610927565b6001905092915050565b600680546105a0906114a2565b80601f01602080910402602001604051908101604052809291908181526020018280546105cc906114a2565b80156106195780601f106105ee57610100808354040283529160200191610619565b820191906000526020600020905b8154815290600101906020018083116105fc57829003601f168201915b505050505081565b6000600560009054906101000a900473ffffffffffffffffffffffffffffffffffffffff1673ffffffffffffffffffffffffffffffffffffffff168273ffffffffffffffffffffffffffffffffffffffff16149050919050565b60008060008373ffffffffffffffffffffffffffffffffffffffff1673ffffffffffffffffffffffffffffffffffffffff168152602001908152602001600020549050919050565b6000600560009054906101000a900473ffffffffffffffffffffffffffffffffffffffff16905090565b6060600480546106fc906114a2565b80601f0160208091040260200160405190810160405280929190818152602001828054610728906114a2565b80156107755780601f1061074a57610100808354040283529160200191610775565b820191906000526020600020905b81548152906001019060200180831161075857829003601f168201915b5050505050905090565b6000806001600061078e610918565b73ffffffffffffffffffffffffffffffffffffffff1673ffffffffffffffffffffffffffffffffffffffff16815260200190815260200160002060008573ffffffffffffffffffffffffffffffffffffffff1673ffffffffffffffffffffffffffffffffffffffff1681526020019081526020016000205490508281101561084b576040517f08c379a00000000000000000000000000000000000000000000000000000000081526004016108429061131e565b60405180910390fd5b610868610856610918565b85858461086391906113e6565b610927565b600191505092915050565b6000610887610880610918565b8484610af2565b6001905092915050565b6000600160008473ffffffffffffffffffffffffffffffffffffffff1673ffffffffffffffffffffffffffffffffffffffff16815260200190815260200160002060008373ffffffffffffffffffffffffffffffffffffffff1673ffffffffffffffffffffffffffffffffffffffff16815260200190815260200160002054905092915050565b6000610922610d71565b905090565b600073ffffffffffffffffffffffffffffffffffffffff168373ffffffffffffffffffffffffffffffffffffffff161415610997576040517f08c379a000000000000000000000000000000000000000000000000000000000815260040161098e906112fe565b60405180910390fd5b600073ffffffffffffffffffffffffffffffffffffffff168273ffffffffffffffffffffffffffffffffffffffff161415610a07576040517f08c379a00000000000000000000000000000000000000000000000000000000081526004016109fe9061127e565b60405180910390fd5b80600160008573ffffffffffffffffffffffffffffffffffffffff1673ffffffffffffffffffffffffffffffffffffffff16815260200190815260200160002060008473ffffffffffffffffffffffffffffffffffffffff1673ffffffffffffffffffffffffffffffffffffffff168152602001908152602001600020819055508173ffffffffffffffffffffffffffffffffffffffff168373ffffffffffffffffffffffffffffffffffffffff167f8c5be1e5ebec7d5bd14f71427d1e84f3dd0314c0f7b2291e5b200ac8c7c3b92583604051610ae5919061133e565b60405180910390a3505050565b600073ffffffffffffffffffffffffffffffffffffffff168373ffffffffffffffffffffffffffffffffffffffff161415610b62576040517f08c379a0000000000000000000000000000000000000000000000000000000008152600401610b59906112de565b60405180910390fd5b600073ffffffffffffffffffffffffffffffffffffffff168273ffffffffffffffffffffffffffffffffffffffff161415610bd2576040517f08c379a0000000000000000000000000000000000000000000000000000000008152600401610bc99061125e565b60405180910390fd5b610bdd838383610da8565b60008060008573ffffffffffffffffffffffffffffffffffffffff1673ffffffffffffffffffffffffffffffffffffffff16815260200190815260200160002054905081811015610c63576040517f08c379a0000000000000000000000000000000000000000000000000000000008152600401610c5a9061129e565b60405180910390fd5b8181610c6f91906113e6565b6000808673ffffffffffffffffffffffffffffffffffffffff1673ffffffffffffffffffffffffffffffffffffffff16815260200190815260200160002081905550816000808573ffffffffffffffffffffffffffffffffffffffff1673ffffffffffffffffffffffffffffffffffffffff1681526020019081526020016000206000828254610cff9190611390565b925050819055508273ffffffffffffffffffffffffffffffffffffffff168473ffffffffffffffffffffffffffffffffffffffff167fddf252ad1be2c89b69c2b068fc378daa952ba7f163c4a11628f55a4df523b3ef84604051610d63919061133e565b60405180910390a350505050565b60006014600036905010158015610d8d5750610d8c33610621565b5b15610da157601436033560601c9050610da5565b3390505b90565b505050565b600081359050610dbc81611543565b92915050565b600081359050610dd18161155a565b92915050565b600060208284031215610de957600080fd5b6000610df784828501610dad565b91505092915050565b60008060408385031215610e1357600080fd5b6000610e2185828601610dad565b9250506020610e3285828601610dad565b9150509250929050565b600080600060608486031215610e5157600080fd5b6000610e5f86828701610dad565b9350506020610e7086828701610dad565b9250506040610e8186828701610dc2565b9150509250925092565b60008060408385031215610e9e57600080fd5b6000610eac85828601610dad565b9250506020610ebd85828601610dc2565b9150509250929050565b610ed08161141a565b82525050565b610edf8161142c565b82525050565b6000610ef082611374565b610efa818561137f565b9350610f0a81856020860161146f565b610f1381611532565b840191505092915050565b6000610f2b60238361137f565b91507f45524332303a207472616e7366657220746f20746865207a65726f206164647260008301527f65737300000000000000000000000000000000000000000000000000000000006020830152604082019050919050565b6000610f9160228361137f565b91507f45524332303a20617070726f766520746f20746865207a65726f20616464726560008301527f73730000000000000000000000000000000000000000000000000000000000006020830152604082019050919050565b6000610ff760268361137f565b91507f45524332303a207472616e7366657220616d6f756e742065786365656473206260008301527f616c616e636500000000000000000000000000000000000000000000000000006020830152604082019050919050565b600061105d60288361137f565b91507f45524332303a207472616e7366657220616d6f756e742065786365656473206160008301527f6c6c6f77616e63650000000000000000000000000000000000000000000000006020830152604082019050919050565b60006110c360258361137f565b91507f45524332303a207472616e736665722066726f6d20746865207a65726f20616460008301527f64726573730000000000000000000000000000000000000000000000000000006020830152604082019050919050565b600061112960248361137f565b91507f45524332303a20617070726f76652066726f6d20746865207a65726f2061646460008301527f72657373000000000000000000000000000000000000000000000000000000006020830152604082019050919050565b600061118f60258361137f565b91507f45524332303a2064656372656173656420616c6c6f77616e63652062656c6f7760008301527f207a65726f0000000000000000000000000000000000000000000000000000006020830152604082019050919050565b6111f181611458565b82525050565b61120081611462565b82525050565b600060208201905061121b6000830184610ec7565b92915050565b60006020820190506112366000830184610ed6565b92915050565b600060208201905081810360008301526112568184610ee5565b905092915050565b6000602082019050818103600083015261127781610f1e565b9050919050565b6000602082019050818103600083015261129781610f84565b9050919050565b600060208201905081810360008301526112b781610fea565b9050919050565b600060208201905081810360008301526112d781611050565b9050919050565b600060208201905081810360008301526112f7816110b6565b9050919050565b600060208201905081810360008301526113178161111c565b9050919050565b6000602082019050818103600083015261133781611182565b9050919050565b600060208201905061135360008301846111e8565b92915050565b600060208201905061136e60008301846111f7565b92915050565b600081519050919050565b600082825260208201905092915050565b600061139b82611458565b91506113a683611458565b9250827fffffffffffffffffffffffffffffffffffffffffffffffffffffffffffffffff038211156113db576113da6114d4565b5b828201905092915050565b60006113f182611458565b91506113fc83611458565b92508282101561140f5761140e6114d4565b5b828203905092915050565b600061142582611438565b9050919050565b60008115159050919050565b600073ffffffffffffffffffffffffffffffffffffffff82169050919050565b6000819050919050565b600060ff82169050919050565b60005b8381101561148d578082015181840152602081019050611472565b8381111561149c576000848401525b50505050565b600060028204905060018216806114ba57607f821691505b602082108114156114ce576114cd611503565b5b50919050565b7f4e487b7100000000000000000000000000000000000000000000000000000000600052601160045260246000fd5b7f4e487b7100000000000000000000000000000000000000000000000000000000600052602260045260246000fd5b6000601f19601f8301169050919050565b61154c8161141a565b811461155757600080fd5b50565b61156381611458565b811461156e57600080fd5b5056fea26469706673582212202c93424c86a86feeff1b82ac6dc5f64312b6fa8083f0d487dd3e53aa6c9a1a7164736f6c63430008000033",
  "immutableReferences": {},
  "source": "// SPDX-License-Identifier: MIT\r\npragma solidity ^0.8.0;\r\n\r\nimport '@openzeppelin/contracts/token/ERC20/ERC20.sol';\r\nimport '@opengsn/contracts/src/BaseRelayRecipient.sol';\r\n\r\ncontract TrickCoin is ERC20, BaseRelayRecipient {\r\n\r\n  string public override versionRecipient = \"2.2.0\";\r\n\r\n  constructor(address _trustedForwarder) ERC20(\"TrickCoin\", \"TRCK\") {\r\n    _setTrustedForwarder(_trustedForwarder);\r\n\r\n    // Total Supply = 100.000.000\r\n    _mint(msg.sender, 100000000 * 10 ** decimals());\r\n  }\r\n\r\n  function decimals() public view virtual override returns (uint8) {\r\n    // Decimals = 4\r\n    return 4;\r\n  }\r\n  \r\n  function _msgSender() internal override (Context, BaseRelayRecipient) virtual view returns (address ret) {\r\n    return BaseRelayRecipient._msgSender();\r\n  }\r\n\r\n  function _msgData() internal override (Context, BaseRelayRecipient) virtual view returns (bytes calldata ret) {\r\n    return BaseRelayRecipient._msgData();\r\n  }\r\n\r\n}",
  "sourcePath": "/Users/peyo/Desarrollo/workspaces/LatamCoin/Trick/trick-blockchain/contracts/TrickCoin.sol",
  "compiler": {
    "name": "solc",
    "version": "0.8.0+commit.c7dfd78e.Emscripten.clang"
  },
  "schemaVersion": "3.4.3",
  "updatedAt": "2022-01-31T02:48:19.087Z",
  "devdoc": {
    "kind": "dev",
    "methods": {
      "allowance(address,address)": {
        "details": "See {IERC20-allowance}."
      },
      "approve(address,uint256)": {
        "details": "See {IERC20-approve}. Requirements: - `spender` cannot be the zero address."
      },
      "balanceOf(address)": {
        "details": "See {IERC20-balanceOf}."
      },
      "decimals()": {
        "details": "Returns the number of decimals used to get its user representation. For example, if `decimals` equals `2`, a balance of `505` tokens should be displayed to a user as `5,05` (`505 / 10 ** 2`). Tokens usually opt for a value of 18, imitating the relationship between Ether and Wei. This is the value {ERC20} uses, unless this function is overloaded; NOTE: This information is only used for _display_ purposes: it in no way affects any of the arithmetic of the contract, including {IERC20-balanceOf} and {IERC20-transfer}."
      },
      "decreaseAllowance(address,uint256)": {
        "details": "Atomically decreases the allowance granted to `spender` by the caller. This is an alternative to {approve} that can be used as a mitigation for problems described in {IERC20-approve}. Emits an {Approval} event indicating the updated allowance. Requirements: - `spender` cannot be the zero address. - `spender` must have allowance for the caller of at least `subtractedValue`."
      },
      "increaseAllowance(address,uint256)": {
        "details": "Atomically increases the allowance granted to `spender` by the caller. This is an alternative to {approve} that can be used as a mitigation for problems described in {IERC20-approve}. Emits an {Approval} event indicating the updated allowance. Requirements: - `spender` cannot be the zero address."
      },
      "name()": {
        "details": "Returns the name of the token."
      },
      "symbol()": {
        "details": "Returns the symbol of the token, usually a shorter version of the name."
      },
      "totalSupply()": {
        "details": "See {IERC20-totalSupply}."
      },
      "transfer(address,uint256)": {
        "details": "See {IERC20-transfer}. Requirements: - `recipient` cannot be the zero address. - the caller must have a balance of at least `amount`."
      },
      "transferFrom(address,address,uint256)": {
        "details": "See {IERC20-transferFrom}. Emits an {Approval} event indicating the updated allowance. This is not required by the EIP. See the note at the beginning of {ERC20}. Requirements: - `sender` and `recipient` cannot be the zero address. - `sender` must have a balance of at least `amount`. - the caller must have allowance for ``sender``'s tokens of at least `amount`."
      }
    },
    "version": 1
  },
  "userdoc": {
    "kind": "user",
    "methods": {
      "isTrustedForwarder(address)": {
        "notice": "return if the forwarder is trusted to forward relayed transactions to us. the forwarder is required to verify the sender's signature, and verify the call is not a replay."
      }
    },
    "version": 1
  }
}